:020000040800F2
:1000000068070020D5010008CB170008FD1500087F
:10001000C917000827040008A91B000800000000F9
:10002000000000000000000000000000CF170008E2
:100030006B04000800000000CD170008D11700086D
:10004000EF010008EF010008EF010008EF010008D0
:10005000EF010008EF010008EF010008EF010008C0
:10006000EF010008EF010008EF010008EF010008B0
:10007000EF010008EF01000829040008350400081A
:10008000EF010008EF010008EF010008EF01000890
:10009000EF010008EF010008EF010008EF01000880
:1000A000EF010008EF010008EF010008EF01000870
:1000B000EF010008EF010008EF010008EF01000860
:1000C000EF010008EF010008EF010008EF01000850
:1000D000EF0100085D1B0008EF010008EF010008B8
:1000E000EF010008EF010008EF010008EF01000830
:1000F000EF010008EF010008EF010008EF01000820
:10010000EF010008EF010008EF010008EF0100080F
:10011000EF010008EF010008EF010008EF010008FF
:10012000EF010008EF010008EF010008EF010008EF
:1001300000F002F800F03FF80AA090E8000C8244BA
:100140008344AAF10107DA4501D100F034F8AFF297
:10015000090EBAE80F0013F0010F18BFFB1A43F0A5
:1001600001031847D8870000F8870000103A24BF21
:1001700078C878C1FAD8520724BF30C830C144BF0C
:1001800004680C607047000000230024002500264E
:10019000103A28BF78C1FBD8520728BF30C148BFEA
:1001A0000B607047732900F00081002070471FB575
:1001B0001FBD10B510BD00F0FCF81146FFF7F7FFAA
:1001C00005F014FA00F01AF903B4FFF7F2FF03BCCC
:1001D00000F022F90948804709480047FEE7FEE79A
:1001E000FEE7FEE7FEE7FEE7FEE7FEE7FEE7FEE7E7
:1001F00004480549054A064B7047000033180008BB
:100200003101000868010020680700206803002011
:10021000680300200FB41CB5074B06AA7B4469464F
:100220000090059800F097F80020694600F0A6F8C5
:100230001CBC5DF814FB00005D0100002DE9F041DD
:100240000E460446002020622046E168884730B30D
:10025000252805D0D4E901219047206A401CF2E707
:10026000E168204600278847050018D0A5F1410025
:10027000192802D820354FF4006732462946204617
:100280002760FFF78FFF40B1012804D0F61D26F04C
:1002900007060836D8E7361DD6E72846DAE7206A8B
:1002A000BDE8F08170B50C460546012A05D02878D6
:1002B000800600D5EA69002302E0012305E05B1C0B
:1002C000934202D2E05C0028F9D1A869E618C01A6E
:1002D000A861286A184428622846AFF3008004E029
:1002E000D5E9012114F8010B9047B442F8D3284610
:1002F000AFF3008070BD4FF0000200B51346944686
:100300009646203922BFA0E80C50A0E80C50B1F16D
:100310002001BFF4F7AF090728BFA0E80C5048BF81
:100320000CC05DF804EB890028BF40F8042B08BF1F
:10033000704748BF20F8022B11F0804F18BF00F81B
:10034000012B7047704770477047000001694A1CD5
:1003500002610878704700B58FB0CDE90131002106
:10036000059105497944CDE9031011466846FFF728
:1003700065FF0FB000BD0000E5FFFFFF0A6802F84F
:10038000010B0A60704710B5436913B1AFF30080E9
:1003900001E0FFF787FF012010BD127800F1240172
:1003A0000A7000224A700122EDE711684FF0FF3217
:1003B000E9E7754600F02CF8AE460500694653465D
:1003C00020F00700854618B020B5FFF711FFBDE803
:1003D00020404FF000064FF000074FF000084FF0AC
:1003E000000B21F00701AC46ACE8C009ACE8C0093D
:1003F000ACE8C009ACE8C0098D46704710B50446AA
:10040000AFF300802046BDE81040FFF7DDBE0000DE
:10041000004870470801002001491820ABBEFEE7E4
:10042000260002007047FEE7014800F0DDB800003A
:10043000B4000020014800F0D7B800007000002090
:1004400030B590F840500124AC40C56B6C60046836
:1004500063604368102B036803D099600068C26032
:1004600030BD9A600068C16030BD704772B6FEE76B
:1004700010B590F821100022022905D004218163D3
:1004800080F82020012010BD01680B6823F00E03C6
:100490000B6001680B6823F001030B6090F840309B
:1004A000C46B012101FA03F3636080F8211080F826
:1004B0002020104610BD00002DE9F05F90F82110BB
:1004C0000024022903D004218163012485E001680E
:1004D0000A6822F00E020A6001680A6822F001022E
:1004E0000A603F4E3E4FB215DFF8F4C0DFF8F090DF
:1004F000DFF8ECA0DFF8E8B0DFF8E4E00168783F6F
:1005000013011502ACF1640CA9F15009AAF13C0ADF
:10051000ABF1280BAEF1140E4FF48018B14227D97D
:10052000B9420ED0614512D049451DD0514518D071
:10053000594518D0714501D1424615E0294EB142C6
:1005400001D1012210E0274E1436B14201D1102210
:100550000AE0244E2836B14206D0224A3C3291426B
:1005600001D11A4600E02A461E49091F0A602BE005
:10057000B94213D0614517D0494522D051451DD00D
:1005800059451DD0714501D142461AE0B14202D110
:100590004FF0807215E0134EB14201D1012210E0FC
:1005A000104E1436B14201D110220AE00D4E283609
:1005B000B14206D00B4A3C32914201D11A4600E0CA
:1005C0002A46074980394A60012180F8211000211C
:1005D00080F82010416B01B188472046BDE8F09FAC
:1005E00080000240080402402DE9F05FC16B0A68F8
:1005F00001680B68046C4FF0040808FA04F8844D95
:10060000844E854FDFF814C2DFF81492DFF814A28D
:10061000DFF814B2DFF814E218EA020F65D05FEADF
:10062000437862D50A68920603D40A6822F004026D
:100630000A60DFF8F0814FF48062016808F1140865
:1006400013011402414524D9A9420DD0B1420FD063
:10065000B9421AD0614515D0494515D0514501D14F
:10066000120312E0594501D104220EE0714501D177
:1006700040220AE06D4D1435A94206D06B4A28325B
:10068000914201D11A4600E022466749091F0A60DB
:1006900029E0A94213D0B14215D0B94220D061451A
:1006A0001BD049451BD0514502D14FF4800217E0C1
:1006B000414502D14FF0806212E0594501D1042238
:1006C0000EE0714501D140220AE0584D1435A9428F
:1006D00006D0564A2832914201D11A4600E02246FD
:1006E0004B4908394A60C16A71E04FF0020808FAC4
:1006F00004F818EA020F70D05FEA83786DD50A68B3
:10070000920606D40A6822F00A020A60012180F8E3
:100710002110DFF810814FF40072016808F114080D
:1007200013011402414524D9A9420DD0B1420FD082
:10073000B9421AD0614515D0494515D0514501D16E
:10074000120312E0594501D102220EE0714501D198
:1007500020220AE0354D1435A94206D0334A28320A
:10076000914201D11A4600E022462F49091F0A6032
:1007700029E0A94213D0B14215D0B94220D0614539
:100780001BD049451BD0514502D14FF4001217E050
:10079000414502D14FF0007212E0594501D10222C9
:1007A0000EE0714501D120220AE0204D1435A94206
:1007B00006D01E4A2832914201D11A4600E0224654
:1007C000134908394A60002180F82010816A002905
:1007D0001CD0BDE8F05F0847FFE70825A54015429B
:1007E00014D01A0712D50A6822F00E020A6090F897
:1007F0004020C36B012101FA02F25A60816380F844
:100800002110002180F82010016BE0E7BDE8F09F87
:10081000080002401C000240300002404400024038
:10082000580002406C000240080402401C040240D0
:1008300030B560B11A4B026814219A4209D2194BA3
:100840001344B3FBF1F18900016417490AE0012068
:1008500030BD134B5B421344B3FBF1F189000164DB
:100860000F490839C163022180F82110136843F64B
:10087000F0718B43F0E901142143D0E902452C4388
:100880002143046921434469214384692143194375
:10089000116000214163012242770177084630BD93
:1008A00008040240F8FFFDBF0000024070B5044696
:1008B00090F82000002501280CD0012084F82000A9
:1008C00094F821600020012E06D084F82000022533
:1008D000284670BD022070BD022684F82160A06306
:1008E0002068066826F0010606602046FFF7A8FD8E
:1008F000E06A00282068016802D041F00E0106E09D
:1009000021F0040101602068016841F00A010160E2
:100910002068016841F001010160D9E770B5044623
:1009200000F010F90546601C02D004480078044429
:1009300000F008F9401BA042FAD370BD0800002067
:100940002DE9F84FDFF8C891002409F1040A0AF1F3
:10095000040B23460F270BF1040ED1E00125A5401F
:1009600006EA0502AA4276D1DFF8A8C14E68A6EBD6
:100970000C0866452BD00DDC032E34D005DC36B3D5
:10098000012E19D0022E2FD11BE0112E16D0122EBF
:100990002AD119E0B8F5881F19D006DCB8F5803FD8
:1009A00015D0B8F5801F1FD111E0B8F5001F0ED08B
:1009B000B8F5041F18D10AE0CB6815E0CB681B1D01
:1009C00012E0CB6808330FE0CB680C330CE08B6887
:1009D0002BB1012B4FF0080303D0456104E0042341
:1009E00002E0056100E00023FF2A01D8064601E08D
:1009F00000F104064FEA840501D9A5F12005D6F8D7
:100A0000008007FA05FC28EA0C0803FA05F548EA15
:100A10000508C6F800804D68ED0070D53E4DAE6902
:100A200046F00106AE61AD6924F0030605F001054C
:100A300000953A4D06EB050CDCF80850A607360F7A
:100A400007FA06F825EA0805DFF8D480404503D107
:100A50004FF0000825E052E0DFF8C880404502D1A1
:100A60004FF001081DE0DFF8C080404502D14FF093
:100A7000020816E0DFF8B480404502D14FF00308C9
:100A80000FE0DFF8AC80404502D14FF0040808E0E9
:100A9000DFF8A080404502D14FF0050801E04FF09B
:100AA000060808FA06F848EA0508CCF808804D68F8
:100AB000D9F80060ED034D4601D5164300E096439A
:100AC0002E604D68DAF80060AD03554601D5164337
:100AD00000E096432E604D68DBF80060ED025D4655
:100AE00001D5164300E096432E604D68DEF80060A5
:100AF000AD02754601D5164300E096432E60641C96
:100B00000A681646E2407FF429AFBDE8F88F00007E
:100B100000040140000011100010024000000140DC
:100B200000080140000C0140001001400014014089
:100B300000180140001C01400AB10161704709041E
:100B4000FBE70000014880687047000008000020B3
:100B500002488168027811448160704708000020D3
:100B6000074810B5016841F010010160032000F052
:100B700075F80F2000F006F800F024F8002010BDF2
:100B80000020024070B50D4D04464FF47A7128786C
:100B9000B1FBF0F00A490968B1FBF0F000F0ECFAA3
:100BA00048B9102C07D200222146501E00F036F81A
:100BB00000206C6070BD012070BD000008000020A6
:100BC000140000200C4808B5816941F001018161E1
:100BD000816901F001010091C16941F08051C16159
:100BE000C06900F0805000900448416821F0E06145
:100BF00041F00071416008BD00100240000001405A
:100C0000002809DB00F01F0201219140400980000B
:100C100000F1E020C0F8001170470000F0B40E4B66
:100C20001B680C46C3F30223C3F10705042D00D94A
:100C30000425191D072901D2002300E0DB1E01262F
:100C400006FA05F1491E214099409E40761E164045
:100C50003143F0BC00F0A9BF0CED00E0064900F004
:100C6000070208684FF6FF03184040EA0220034AD3
:100C700010430860704700000CED00E00000FA052A
:100C80002DE9F0470F46050061D0434E306800F073
:100C90000700B84209D2306820F0070038433060BE
:100CA000306800F00700B84251D128683B4C8107FA
:100CB00012D5400703D5606840F4E0606060287892
:100CC000000703D5606840F4605060606068A96800
:100CD00020F0F000084360602878C00728D06868DA
:100CE000012810D02168022810D0890700292EDAA7
:100CF000616821F0030101436160FFF723FF804633
:100D000041F288390DE021688903EFE78901EDE7B9
:100D1000FFF718FFA0EB0801494502D90320BDE801
:100D2000F0876068696800F00C00B0EB810FEFD1CC
:100D3000306800F00700B8420BD9306820F0070097
:100D400038433060306800F00700B84201D001201D
:100D5000E5E72878400705D56068E96820F4E06099
:100D6000084360602878000706D56068296920F488
:100D7000605040EAC100606000F038F86168084ADD
:100D8000C1F30311515CC840064908600648006879
:100D9000FFF7F8FE0020C2E70020024000100240EA
:100DA000A4590008140000200C0000200448054944
:100DB00000684968044AC1F30221515CC840704789
:100DC0001400002000100240B459000804480549EE
:100DD00000684968044AC1F3C221515CC8407047A9
:100DE0001400002000100240B459000812A185B080
:100DF0000FC98DE80F0014A0144A006804905168D0
:100E0000134801F00C03042B10D0082B0ED1C1F3B2
:100E10008343C9031DF803000AD5516804AAC1F32E
:100E20004041515C0A4A5043B0FBF1F005B07047B5
:100E300008494843FAE700000203040506070809C9
:100E40000A0B0C0D0E0F10100102000000100240E2
:100E500000127A0000093D002DE9F84F040070D01F
:100E60002078C04DC00749D06868C0F381000128D0
:100E700007D06868C0F38100022809D16868C00300
:100E800006D52868800339D560680028E7D035E0AA
:100E90006068B0F5803F0BD010B1B0F5A02F11D035
:100EA000286820F480302860286820F4802002E040
:100EB000286840F480302860606890B1FFF742FEF7
:100EC00006460AE0286840F480202860F0E700BF6A
:100ED000FFF738FE801B642873D828688003F7D595
:100EE0000CE0FFF72FFE064605E000BFFFF72AFEE5
:100EF000801B6428F0D828688003F7D420789A4EA5
:100F000080074FF001094FF0000839D5686810F0EC
:100F10000C0F07D06868C0F38100022809D1686807
:100F2000C00306D42868800714D52069012808D199
:100F300010E02069B0B1C6F80090FFF703FE074645
:100F400005E00AE1FFF7FEFDC01B0228C4D82868AF
:100F50008007F7D52868616920F0F80040EAC100F1
:100F600028600DE0C6F80080FFF7ECFD074604E0BE
:100F7000FFF7E8FDC01B022823D828688007F7D4B4
:100F8000207800072CD57948A169D9B1C0F8009024
:100F9000FFF7D8FD074604E0FFF7D4FDC01B022889
:100FA0000FD8686A8007F7D571484FF4FA51006886
:100FB000B0FBF1F0009000BF0098411E0091FAD202
:100FC0000EE080E0C0F80080FFF7BCFD074604E0BB
:100FD000FFF7B8FDC01B022875D8686A8007F7D4F0
:100FE0002078400760D5E8690027C00008D4E86988
:100FF00040F08050E861E869012700F080500090DF
:101000005C480168C90513D40168834641F48071C6
:101010000160FFF797FD824606E000BFFFF792FDF3
:10102000A0EB0A0064284ED8DBF80000C005F5D517
:10103000E06801280AD008B1052813D0286A20F0FA
:1010400001002862286A20F0040002E0286A40F0CB
:1010500001002862E06841F2883B98B1FFF772FD19
:1010600082460BE0286A40F004002862EEE700BFE9
:10107000FFF768FDA0EB0A0159455AD8286A800796
:10108000F6D50CE0FFF75EFD824605E0FFF75AFD5E
:10109000A0EB0A0159454CD8286A8007F6D41FB145
:1010A000E86920F08050E861E06988B36968C1F3BD
:1010B0008101022944D00228C6F8608004D0FFF7DD
:1010C00041FD044638E034E0FFF73CFD074604E00C
:1010D000FFF738FDC01B02282BD828688001F7D401
:1010E000206AB0F5803F05D16868A16820F400301F
:1010F00008436860D4E908010843696821F4741161
:1011000008436860C6F86090FFF71CFD044606E0DF
:1011100025E000BFFFF716FD001B022809D828684C
:101120008001F7D51BE000BFFFF70CFD001B022874
:1011300002D90320BDE8F88F28688001F4D40EE0BE
:101140000128F7D06868226A00F48031914204D106
:10115000616A00F47010884201D00120EAE70020A3
:10116000E8E70000001002400000424280044242D2
:10117000140000200070004010B5401EB0F1807FC8
:1011800001D3012010BD4FF0E02460610F216017F2
:1011900000F00BFD0020A06107202061002010BDA1
:1011A000704710B504460068416994F83D20C1F3CA
:1011B000C011212A0BD151B1416921F08001416157
:1011C000606B08B1FFF754F9204600F0CEFB2068B1
:1011D000416994F83E20C1F38011222A0BD151B10C
:1011E000416921F040014161A06B08B1FFF740F96E
:1011F000204600F0A2FB002010BD7047F8B5026841
:1012000004461068D168536910F00F0F4FF00005C5
:1012100053D003F0010601F4907737435FD0C20743
:1012200005D0CA0503D5226C42F0010222644207B0
:1012300005D5DA0703D0226C42F00202226482074D
:1012400005D5DA0703D0226C42F0040222640207BB
:1012500007D501F02002324303D0226C42F008028D
:101260002264226C002A34D0800604D5880602D578
:10127000204600F083FB20684069216CC0F3801099
:10128000090700D430B3204600F057FB20684169BD
:1012900049061BD5416921F040014161A06BA8B10D
:1012A00058494163A06BFFF707F9002811D0A06BE4
:1012B000416B01B0BDE8F040084783060FD58B06AF
:1012C0000DD52046BDE8F84000F058BB2046FFF79A
:1012D00094FFF8BD2046FFF790FF2564F8BD266B0C
:1012E0002023012E52D1C60650D5CE064ED5106809
:1012F00050680090506940062AD5A16B0868406884
:101300000004000CEAD0A68D8642E7D9E085886902
:10131000202818D0D06820F48070D06020684169FF
:1013200021F0010141612068416921F040014161E2
:1013300084F83E3025632068C16821F01001C16047
:10134000A06BFFF795F8A08DE18D401A81B219E0EE
:10135000A08DE18D401A81B2E08D0028BED0002919
:10136000BCD0D06820F49070D0602068426922F030
:101370000102426184F83E3025632068C26822F091
:101380001002C2602046FFF70BFFF8BD05062BD503
:101390000D0629D594F83D002128F6D1A068B0F5B6
:1013A000805F01D12069B0B1206A411C21622168AF
:1013B00000784860E08C401E0004000CE084E4D11A
:1013C0002068C16821F08001C1602068C16841F0D7
:1013D0004001C160F8BD206A0088C0F30800506079
:1013E000206A801C2062E5E74006F3D54806F1D567
:1013F000D168204621F04001D16084F83D3000F0F2
:10140000FBF8F8BD3518000870B5040004D094F856
:101410003D00002510B106E0012070BD84F83C506D
:10142000204600F023F8242084F83D002068C1689D
:1014300021F40051C160204600F0FCFA20680169E7
:1014400021F4904101612068416921F02A01416144
:101450002068C16841F40051C1602564202084F8EF
:101460003D0084F83E00002070BD0000F0B585B05E
:1014700000240646009401940294039400682D49C8
:10148000884254D12C48816941F48041816181694D
:1014900001F480410491816941F004018161806916
:1014A000264D00F0040004904FF4007000900220DC
:1014B00001900320039069462846FFF741FA28155A
:1014C000CDE90004694628460294FFF739FA1D4D1C
:1014D0001B488027C5E90004C5E902472C616C61FF
:1014E000AC612846EC61FFF7A3F908B1FEF7BEFF37
:1014F000B5636E62134D12484435143801C510208F
:1015000091C5104845F8104944306C61AC61EC61FC
:10151000FFF78EF908B1FEF7A9FF756300220121DC
:1015200025206E62FFF77AFB2520FFF769FB05B0E7
:10153000F0BD0000003801400010024000080140EA
:10154000580002407000002090F83E30202B0ED151
:1015500059B152B190F83C30012B08D0012380F8EA
:101560003C300023036300F0C1BA01207047022021
:10157000704770477047000070B5044690F83D0012
:10158000202830D169B362B394F83C0001282AD0F6
:10159000012084F83C002162A284E28400252564B5
:1015A000212084F83D00636B10489862636B1048FB
:1015B000D862636B0F481863606B134645632668F7
:1015C000606B321DFFF772F921686FF04000086010
:1015D00084F83C502068416941F08001416100205D
:1015E00070BD012070BD022070BD0000031900080D
:1015F000311900084518000870477047FEE70000E1
:101600000D4808B5416941F001014161406900227E
:1016100000F00100009011460E20FFF7FFFA0E20A7
:10162000FFF7EEFA002211460F20FFF7F7FABDE8A8
:1016300008400F20FFF7E4BA001002402DE9F04FF8
:1016400085B000254D480095019502950395816967
:1016500041F010018161816901F0100104918169FB
:1016600041F020018161816901F0200104918169CB
:1016700041F004018161816901F0040104918169F3
:1016800041F0080181618069002200F008000490A7
:101690004FF6FF713A48FFF74FFADFF8E8A04FF432
:1016A000F869002249465046FFF746FADFF8D8B0FD
:1016B0004FF48077002239465846FFF73DFA002262
:1016C00004213248FFF738FA43F61F000326CDE91C
:1016D000000669465046FFF733F941F6FF00CDE9B1
:1016E000000669465846FFF72BF92020CDE9000592
:1016F000694650460295FFF723F9012401AA4FF0ED
:101700000208009482E8300169461D48FFF718F985
:101710004FF6FE60CDE90004CDE90246694618485F
:10172000FFF70EF9CDE90094CDE90246694650462F
:10173000FFF706F9CDE90074029469465846039410
:10174000FFF7FEF8E003CDE900056946584602952B
:10175000FFF7F6F80420CDE90004029469460B482F
:101760000394FFF7EDF8CDE90074CDE902866946F0
:101770000348FFF7E5F805B0BDE8F08F0010024020
:10178000000C01400010014000080140001401401D
:101790000C4810B50A4901604FF4E1314160002165
:1017A00081600C22C160C0E904128161C161FFF750
:1017B0002BFE002803D0BDE81040FEF757BE10BD39
:1017C000003801402C000020FEE7FEE7704770471C
:1017D000FFF7BEB930B58FB028216846FEF78BFD04
:1017E00014210AA8FEF787FD01210804CDE90010A5
:1017F0000024029402250491CDE907504FF4E01033
:1018000009906846FFF728FB08B172B6FEE70F2083
:10181000CDE90A054FF48060CDE90C4002210AA809
:101820000E94FFF72DFA002801D072B6FEE70FB034
:1018300030BD704710B5406A0021C185C184FFF7F3
:10184000DCFC10BD70B5446A2068406994F83D1016
:10185000C0F3C0100025212904D118B1E584204629
:1018600000F083F82068406994F83E10C0F38010BF
:10187000222904D118B1E585204600F05EF8206CDD
:1018800040F0100020642046FFF7B7FC70BD10B593
:101890000146406A0968096889061BD40021C18590
:1018A0000168CA6822F48072CA6001684A6922F03D
:1018B00001024A6101684A6922F040024A6120211E
:1018C00080F83E10016B012904D10168CA6822F03A
:1018D0001002CA60016B012902D0FFF74AFE10BD59
:1018E000818DFFF75DFC10BD10B5406A016B0129C9
:1018F00002D0FFF73FFE10BD818D4908FFF750FC75
:1019000010BD10B50146406A0968096889060CD403
:101910000021C18401684A6922F080024A6100689E
:10192000C16841F04001C16010BDFFF765FE10BD08
:1019300010B5406AFFF761FE10BD0168CA6822F465
:101940009072CA6001684A6922F001024A61016B23
:10195000012904D10168CA6822F01002CA6020215E
:1019600080F83E100021016370470168CA6822F0C8
:10197000C002CA60202180F83D10704708B590F879
:101980003E10222901D0022008BD82684FF4805306
:101990009A4201D1016921B1816A9A421BD04AB1B0
:1019A0000AE00268816A5268C2F308020A80816A0A
:1019B000891C08E0026972B10268526802F07F0275
:1019C0000A70816A491C8162C18D491E0904090C93
:1019D000C18503D019E002685268F1E70168CA685E
:1019E00022F02002CA600168CA6822F48072CA60CC
:1019F00001684A6922F001024A61202180F83E1004
:101A0000016B012903D0FFF7B4FD002008BD0021C0
:101A100001630168CA6822F01002CA6001680A689E
:101A2000D20602D50A6849680091818DFFF7B8FB9C
:101A3000EBE7000070B5044600680169E26821F434
:101A40004051114301612169A0680843616908435D
:101A50002168CA6841F20C639A430243CA60206855
:101A60004169A26921F44071114341611E49206816
:101A7000884202D1FFF7AAF901E0FFF797F900EBDE
:101A8000C00101EB0012606864218000B2FBF0F33A
:101A9000B3FBF1F36FF018067343B2FBF0F5B2FB42
:101AA000F0F605EB8305322303EB0515B5FBF1F5E5
:101AB000B6FBF1F605F0F00505EB0615B2FBF0F606
:101AC000B2FBF0F0B0FBF1F06FF01802504306EB00
:101AD000800003EB0010B0FBF1F0216800F00F0074
:101AE0002844886070BD00000038014038B581622C
:101AF00082850025134604460564222084F83E00B2
:101B0000A26B13489062A26B1248D062A26B12487B
:101B10001063A06B0A4645632168A06B091DFEF7A0
:101B2000C5FE206801684168009184F83C50C16896
:101B300041F48071C1602068416941F00101416157
:101B40002068416941F040014161002038BD00003A
:101B50008F180008E91800084518000838B5104C1F
:101B600020680168C943C90614D401684068009020
:101B70002046FFF716FBA06B006840680949C0F1DA
:101B80000800C2B22046FFF7F7FC082205492046AC
:101B9000FFF7DAFCBDE838400148FFF72FBB000033
:101BA0002C00002000000020FEE70907090E002895
:101BB00004DB00F1E02080F80014704700F00F0013
:101BC00000F1E02080F8141D70470000F8B5174FB1
:101BD0000646002438887D8821464543204603F088
:101BE0007FFA3889ADF8000011494FF08070086124
:101BF00047000F61BDF800200E480260BA100A616C
:101C000080230B614FF4007CC1F810C04FF4807E3C
:101C1000C1F810E00F6103E006600A610B61641C0B
:101C2000AC42F9D3C1F810C0F8BD0000F8000020A4
:101C3000001001400C0C01402DE9F04F2B492C26DF
:101C40000A46887192884FF4305A4FF4285B4FF45B
:101C5000487541F6631E2B274FF02A0C4FF0F00811
:101C600045F210594FF4A0744FF4F073B8B10C80E2
:101C7000A1F802804A4532D1A1F808A0A1F80AB023
:101C8000380288810D804B80A2F5A640103801D122
:101C90000B804C80BDE8F04F002003F0A3B8A1F802
:101CA00000804C804A4507D1A1F808A0A1F80AB0ED
:101CB0004FF42C50888105E072450E8105D14F818B
:101CC000A1F80CC00B804D8002E0A1F80AC08F8102
:101CD000A2F5A6401038DDD10C804B80DAE70E81EA
:101CE000A1F80AC072458F81CCD0CDE7F800002062
:101CF0002DE9FE4F161ACDE900104FF000085D1ACD
:101D000047464FF0FF30002E02DD4FF0010102E0A8
:101D100003D14FF000018B4602E08346C6F1000676
:101D2000002D02DD4FF0010002E003D14FF0000072
:101D3000824602E08246C5F10005AE4201DD34462E
:101D400000E02C46601C4FF00009029019E000985A
:101D50000C9A81B2019880B200F018F8B0442F4478
:101D6000A04504DD0198A8EB040858440190A7425F
:101D700003DD00983F1B5044009009F101001FFA59
:101D800080F902998945E2DDBDE8FE8FF8B5144679
:101D900003F0A6F90D480089ADF800000C484FF09B
:101DA0008071016149000161BDF80030094A13608A
:101DB0008B10036180250561461506618715076153
:101DC00001611460036105610661F8BDF80000203F
:101DD000001001400C0C01402DE9F8411D46079C04
:101DE0001646884607460B460094FFF781FF3A46A1
:101DF0002B46414610460094FFF77AFF2B463246A9
:101E0000194638460094FFF773FF32462B46414689
:101E100010460094FFF76CFFBDE8F8812DE9F84FFC
:101E2000CF20ADF80000FF4C4FF0807525616E00AB
:101E30002661BDF80010DFF8F0A3CAF800106F109B
:101E400027614FF08008C4F810804FF40079C4F87F
:101E50001090002003F096FBC12003F093FB30208C
:101E600003F090FBED20ADF8000025612661BDF880
:101E70000010CAF800102761C4F81080C4F8109050
:101E8000642003F07FFB032003F07CFB122003F0AF
:101E900079FB812003F076FBE820ADF80000256196
:101EA0002661BDF80010CAF800102761C4F8108040
:101EB000C4F81090852003F065FB102003F062FB4E
:101EC0007A2003F05FFBCB20ADF80000256126618E
:101ED000BDF80010CAF800102761C4F81080C4F8DB
:101EE0001090392003F04EFB2C2003F04BFB002018
:101EF00003F048FB342003F045FB022003F042FBD3
:101F0000F720ADF8000025612661BDF80010CAF881
:101F100000102761C4F81080C4F81090202003F04E
:101F200031FBEA20ADF8000025612661BDF8001004
:101F3000CAF800102761C4F81080C4F8109000207F
:101F400003F020FB002003F01DFBC020ADF80000D3
:101F500025612661BDF80010CAF800102761C4F899
:101F60001080C4F810901B2003F00CFBC120ADF8CA
:101F7000000025612661BDF80010CAF80010276135
:101F8000C4F81080C4F81090012003F0FBFAC520BB
:101F9000ADF8000025612661BDF80010CAF80010F8
:101FA0002761C4F81080C4F81090302003F0EAFADA
:101FB000302003F0E7FAC720ADF800002561266164
:101FC000BDF80010CAF800102761C4F81080C4F8EA
:101FD0001090B72003F0D6FA3620ADF80000256146
:101FE0002661BDF80010CAF800102761C4F81080FF
:101FF000C4F81090482003F0C5FA3A20ADF800006C
:1020000025612661BDF80010CAF800102761C4F8E8
:102010001080C4F81090552003F0B4FAB120ADF848
:10202000000025612661BDF80010CAF80010276184
:10203000C4F81080C4F81090002003F0A3FA1A200E
:1020400003F0A0FAB620ADF8000025612661BDF8C6
:102050000010CAF800102761C4F81080C4F810906E
:102060000A2003F08FFAA22003F08CFAF220ADF8D8
:10207000000025612661BDF80010CAF80010276134
:10208000C4F81080C4F81090002003F07BFA2620DA
:10209000ADF8000025612661BDF80010CAF80010F7
:1020A0002761C4F81080C4F81090012003F06AFA88
:1020B000E020ADF8000025612661BDF80010CAF8E7
:1020C00000102761C4F81080C4F810900F2003F0AE
:1020D00059FA2A2003F056FA282003F053FA082070
:1020E00003F050FA0E2003F04DFA082003F04AFAEC
:1020F000542003F047FAA92003F044FA432003F0E8
:1021000041FA0A2003F03EFA0F2003F03BFA0020C8
:1021100003F038FA002003F035FA002003F032FA19
:10212000002003F02FFAE120ADF8000025612661C0
:10213000BDF80010CAF800102761C4F81080C4F878
:102140001090002003F01EFA152003F01BFA172050
:1021500003F018FA072003F015FA112003F012FA21
:10216000062003F00FFA2B2003F00CFA562003F0A0
:1021700009FA3C2003F006FA052003F003FA1020C8
:1021800003F000FA0F2003F0FDF93F2003F0FAF905
:102190003F2003F0F7F90F2003F0F4F92B20ADF8FE
:1021A000000025612661BDF80010CAF80010276103
:1021B000C4F81080C4F81090002003F0E3F9002068
:1021C00003F0E0F9012003F0DDF93F2003F0DAF934
:1021D0002A20ADF8000025612661BDF80010CAF87C
:1021E00000102761C4F81080C4F81090002003F09C
:1021F000C9F9002003F0C6F9002003F0C3F9EF206D
:1022000003F0C0F91120ADF8000025612661BDF88A
:102210000010CAF800102761C4F81080C4F81090AC
:10222000782003E0001001400C0C0140FEF776FB23
:102230002920ADF8000025612661BDF80010CAF81C
:1022400000102761C4F81080C4F81090BDE8F88F22
:102250002DE9F84FED20ADF80000FF4E4FF08074EF
:10226000346163003361BDF80000FC4D28609F10AD
:1022700037614FF08009C6F810904FF40078C6F827
:102280001080012003F07EF9FE2003F07BF9EE20A0
:10229000ADF8000034613361BDF80000286037619B
:1022A000C6F81090C6F81080DE2003F06BF92120EC
:1022B00003F068F9F120ADF8000034613361BDF836
:1022C000000028603761C6F81090C6F81080012021
:1022D00003F058F9DF20ADF8000034613361BDF838
:1022E000000028603761C6F81090C6F810801020F2
:1022F00003F048F94FF0C40AADF800A0346133612F
:10230000BDF8000028603761C6F81090C6F810804C
:102310008F2003F037F94FF0C60BADF800B03461F1
:102320003361BDF8000028603761C6F81090C6F828
:102330001080002003F026F9E22003F023F9E220C8
:1023400003F020F9E22003F01DF9BF20ADF80000F2
:1023500034613361BDF8000028603761C6F8109021
:10236000C6F81080AA2003F00DF9B020ADF80000E7
:1023700034613361BDF8000028603761C6F8109001
:10238000C6F810800D2003F0FDF8002003F0FAF8E5
:102390000D2003F0F7F8002003F0F4F8112003F00B
:1023A000F1F8002003F0EEF8192003F0EBF800201C
:1023B00003F0E8F8212003F0E5F8002003F0E2F84C
:1023C0002D2003F0DFF8002003F0DCF83D2003F0BF
:1023D000D9F8002003F0D6F85D2003F0D3F80020F0
:1023E00003F0D0F85D2003F0CDF8002003F0CAF828
:1023F000B120ADF8000034613361BDF80000286001
:102400003761C6F81090C6F81080802003F0BAF843
:10241000002003F0B7F88B2003F0B4F8002003F09D
:10242000B1F8962003F0AEF8002003F0ABF8B2202C
:10243000ADF8000034613361BDF8000028603761F9
:10244000C6F81090C6F81080002003F09BF800201A
:1024500003F098F8022003F095F8002003F092F8BA
:10246000032003F08FF8002003F08CF8B320ADF8C0
:10247000000034613361BDF8000028603761C6F8A0
:102480001090C6F81080002003F07CF8002003F0C4
:1024900079F8002003F076F8002003F073F80020AC
:1024A00003F070F8002003F06DF8002003F06AF8E4
:1024B000002003F067F8002003F064F8002003F028
:1024C00061F8002003F05EF8002003F05BF80020C4
:1024D00003F058F8002003F055F8002003F052F8FC
:1024E000002003F04FF8002003F04CF8002003F028
:1024F00049F8002003F046F8002003F043F80020DC
:1025000003F040F8002003F03DF8002003F03AF813
:10251000002003F037F8B420ADF8000034613361D7
:10252000BDF8000028603761C6F81090C6F810802A
:102530008B2003F027F8002003F024F8962003F006
:1025400021F8002003F01EF8A12003F01BF8002062
:1025500003F018F8B520ADF8000034613361BDF820
:10256000000028603761C6F81090C6F8108002207D
:1025700003F008F8002003F005F8032003F002F848
:10258000002002F0FFFF042002F0FCFF002002F018
:10259000F9FFB620ADF8000034613361BDF80000EA
:1025A00028603761C6F81090C6F81080002002F04D
:1025B000E9FF002002F0E6FFB720ADF8000034612B
:1025C0003361BDF8000028603761C6F81090C6F886
:1025D0001080002002F0D6FF002002F0D3FF3F2041
:1025E00002F0D0FF002002F0CDFF5E2002F0CAFF13
:1025F000002002F0C7FF642002F0C4FF002002F0B8
:10260000C1FF8C2002F0BEFF002002F0BBFFAC2017
:1026100002F0B8FF002002F0B5FFDC2002F0B2FFAC
:10262000002002F0AFFF702002F0ACFF002002F0AB
:10263000A9FF902002F0A6FF002002F0A3FFEB20EC
:1026400002F0A0FF002002F09DFFDC2002F09AFFC4
:10265000002002F097FF03E0001001400C0C014045
:10266000B820ADF8000034613361BDF80000286087
:102670003761C6F81090C6F81080002002F082FF83
:10268000002002F07FFF002002F07CFF002002F01B
:1026900079FF002002F076FF002002F073FF002097
:1026A00002F070FF002002F06DFFBA20ADF80000CC
:1026B00034613361BDF8000028603761C6F81090BE
:1026C000C6F81080242002F05DFF002002F05AFFBF
:1026D000002002F057FF002002F054FFC120ADF8A7
:1026E000000034613361BDF8000028603761C6F82E
:1026F0001090C6F81080202002F044FF002002F065
:1027000041FF542002F03EFF002002F03BFFFF207B
:1027100002F038FF002002F035FFC220ADF80000C3
:1027200034613361BDF8000028603761C6F810904D
:10273000C6F810800A2002F025FF002002F022FFD8
:10274000042002F01FFF002002F01CFFC320ADF8A0
:10275000000034613361BDF8000028603761C6F8BD
:102760001090C6F810803C2002F00CFF002002F010
:1027700009FF3A2002F006FF002002F003FF392093
:1027800002F000FF002002F0FDFE372002F0FAFE0A
:10279000002002F0F7FE3C2002F0F4FE002002F0E0
:1027A000F1FE362002F0EEFE002002F0EBFE3220B9
:1027B00002F0E8FE002002F0E5FE2F2002F0E2FE2B
:1027C000002002F0DFFE2C2002F0DCFE002002F0F0
:1027D000D9FE292002F0D6FE002002F0D3FE2620EA
:1027E00002F0D0FE002002F0CDFE242002F0CAFE4E
:1027F000002002F0C7FE242002F0C4FE002002F0F8
:10280000C1FE232002F0BEFE002002F0BBFE3C20F1
:1028100002F0B8FE002002F0B5FE362002F0B2FE53
:10282000002002F0AFFE322002F0ACFE002002F0E9
:10283000A9FE2F2002F0A6FE002002F0A3FE2C200D
:1028400002F0A0FE002002F09DFE292002F09AFE78
:10285000002002F097FE262002F094FE002002F0F5
:1028600091FE242002F08EFE002002F08BFE242038
:1028700002F088FE002002F085FE232002F082FE96
:10288000002002F07FFEADF800A034613361BDF896
:10289000000028603761C6F81090C6F810806220EA
:1028A00002F070FE002002F06DFE052002F06AFECC
:1028B000002002F067FE842002F064FE002002F097
:1028C00061FEF02002F05EFE002002F05BFE1820A8
:1028D00002F058FE002002F055FEA42002F052FE45
:1028E000002002F04FFE182002F04CFE002002F003
:1028F00049FE502002F046FE002002F043FE0C206C
:1029000002F040FE002002F03DFE172002F03AFEE9
:10291000002002F037FE952002F034FE002002F085
:1029200031FEF32002F02EFE002002F02BFEE62006
:1029300002F028FE002002F025FEC520ADF80000C0
:1029400034613361BDF8000028603761C6F810902B
:10295000C6F81080322002F015FE002002F012FEB0
:10296000442002F00FFE002002F00CFE652002F071
:1029700009FE002002F006FE762002F003FE002091
:1029800002F000FE882002F0FDFD002002F0FAFDBA
:10299000ADF800B034613361BDF8000028603761E4
:1029A000C6F81090C6F81080202002F0EBFD002041
:1029B00002F0E8FD172002F0E5FD002002F0E2FD44
:1029C000012002F0DFFD002002F0DCFDC720ADF8A1
:1029D000000034613361BDF8000028603761C6F83B
:1029E0001090C6F81080002002F0CCFD002002F00C
:1029F000C9FD002002F0C6FD002002F0C3FDC82082
:102A0000ADF8000034613361BDF800002860376123
:102A1000C6F81090C6F81080002002F0B3FD002028
:102A200002F0B0FD002002F0ADFD002002F0AAFD92
:102A3000C920ADF8000034613361BDF800002860A2
:102A40003761C6F81090C6F81080002002F09AFD99
:102A5000002002F097FD002002F094FD002002F01B
:102A600091FD002002F08EFD002002F08BFD002081
:102A700002F088FD002002F085FD002002F082FDBA
:102A8000002002F07FFD002002F07CFD002002F01B
:102A900079FD002002F076FD002002F073FD002099
:102AA00002F070FD002002F06DFDE020ADF80000A6
:102AB00034613361BDF8000028604FF4000AC6F8A5
:102AC00010A0CB46C6F810904746C6F810801620D6
:102AD00002F058FD002002F055FD1C2002F052FDCE
:102AE000002002F04FFD212002F04CFD002002F0FA
:102AF00049FD362002F046FD002002F043FD46204D
:102B000002F040FD002002F03DFD522002F03AFDAF
:102B1000002002F037FD642002F034FD002002F0B6
:102B200031FD7A2002F02EFD002002F02BFD8B20DB
:102B300002F028FD002002F025FD992002F022FD80
:102B4000002002F01FFDA82002F01CFD002002F072
:102B500019FDB92002F016FD002002F013FDC4207B
:102B600002F010FD002002F00DFDCA2002F00AFD67
:102B7000002002F007FDD22002F004FD002002F048
:102B800001FDD92002F0FEFC002002F0FBFCE02059
:102B900002F0F8FC002002F0F5FCF32002F0F2FC59
:102BA000002002F0EFFCE120ADF800003461336159
:102BB000BDF800002860C6F810A0C6F81090376174
:102BC000162002F0DFFC002002F0DCFC1C2002F0EA
:102BD000D9FC002002F0D6FC222002F0D3FC002019
:102BE00002F0D0FC362002F0CDFC002002F0CAFC3E
:102BF000452002F0C7FC002002F0C4FC522002F085
:102C0000C1FC002002F0BEFC642002F0BBFC0020EE
:102C100002F0B8FC7A2002F0B5FC002002F0B2FC11
:102C20008B2002F0AFFC002002F0ACFC992002F0F7
:102C3000A9FC002002F0A6FCA82002F0A3FC0020C2
:102C400002F0A0FCB92002F09DFC002002F09AFCEA
:102C5000C42002F097FC002002F094FCCA2002F08D
:102C600091FC002002F08EFCD22002F08BFC0020B0
:102C700002F088FCD82002F085FC002002F082FCE3
:102C8000E02002F07FFC002002F07CFCF32002F048
:102C900079FC002002F076FCE220ADF800003461FF
:102CA0003361BDF800002860C6F810A0C6F8109087
:102CB0003761052002F066FC002002F063FC0B2067
:102CC00002F060FC002002F05DFC1B2002F05AFCC8
:102CD000002002F057FC342002F054FC002002F0E7
:102CE00051FC442002F04EFC002002F04BFC4F202F
:102CF00002F048FC002002F045FC612002F042FC9A
:102D0000002002F03FFC792002F03CFC002002F0A1
:102D100039FC882002F036FC002002F033FC9720BA
:102D200002F030FC002002F02DFCA62002F02AFC6C
:102D3000002002F027FCB72002F024FC002002F063
:102D400021FCC22002F01EFC002002F01BFCC72068
:102D500002F018FC002002F015FCD12002F012FC59
:102D6000002002F00FFCD62002F00CFC002002F044
:102D700009FCDD2002F006FC002002F003FCF32039
:102D800002F000FC002002F0FDFBE320ADF80000A3
:102D900034613361BDF800002860C6F810A0C6F8A1
:102DA00010903761052002F0EDFB002002F0EAFBF5
:102DB0000A2002F0E7FB002002F0E4FB1C2002F0F6
:102DC000E1FB002002F0DEFB332002F0DBFB002001
:102DD00002F0D8FB442002F0D5FB002002F0D2FB29
:102DE000502002F0CFFB002002F0CCFB622002F06A
:102DF000C9FB002002F0C6FB782002F0C3FB0020D4
:102E000002F0C0FB882002F0BDFB002002F0BAFBFC
:102E1000972002F0B7FB002002F0B4FBA62002F0DE
:102E2000B1FB002002F0AEFBB72002F0ABFB0020AC
:102E300002F0A8FBC22002F0A5FB002002F0A2FBDA
:102E4000C72002F09FFB002002F09CFBD12002F083
:102E500099FB002002F096FBD52002F093FB0020A6
:102E600002F090FBDD2002F08DFB002002F08AFBD7
:102E7000F32002F087FB002002F084FBE420ADF891
:102E8000000034613361BDF800002860C6F810A06E
:102E9000C6F810903761012002F074FB002002F0A8
:102EA00071FB012002F06EFB002002F06BFB0220A0
:102EB00002F068FB002002F065FB2A2002F062FBB2
:102EC000002002F05FFB3C2002F05CFB002002F0DF
:102ED00059FB4B2002F056FB002002F053FB5D2013
:102EE00002F050FB002002F04DFB742002F04AFB80
:102EF000002002F047FB842002F044FB002002F097
:102F000041FB932002F03EFB002002F03BFBA2209D
:102F100002F038FB002002F035FBB32002F032FB58
:102F2000002002F02FFBBE2002F02CFB002002F05C
:102F300029FBC42002F026FB002002F023FBCD2059
:102F400002F020FB002002F01DFBD32002F01AFB50
:102F5000002002F017FBDD2002F014FB002002F03D
:102F600011FBF32002F00EFB002002F00BFBE5202A
:102F7000ADF8000034613361BDF800002860C6F888
:102F800010A0C6F810903761002002F0FBFA002074
:102F900002F0F8FA002002F0F5FA002002F0F2FA4E
:102FA000022002F0EFFA002002F0ECFA292002F0F1
:102FB000E9FA002002F0E6FA3C2002F0E3FA0020F1
:102FC00002F0E0FA4B2002F0DDFA002002F0DAFA1B
:102FD0005D2002F0D7FA002002F0D4FA742002F04B
:102FE000D1FA002002F0CEFA842002F0CBFA0020C1
:102FF00002F0C8FA932002F0C5FA002002F0C2FAEB
:10300000A22002F0BFFA002002F0BCFAB32002F0C6
:10301000B9FA002002F0B6FABE2002F0B3FA00209E
:1030200002F0B0FAC42002F0ADFA002002F0AAFAD1
:10303000CD2002F0A7FA002002F0A4FAD32002F07B
:10304000A1FA002002F09EFADC2002F09BFA002098
:1030500002F098FAF32002F095FA002002F092FABA
:10306000E620ADF8000034619A463361BDF80010E7
:10307000A9462960651035615F46C6F810B0C6F8EC
:103080001080112002F07EFA002002F07BFA34203A
:1030900002F078FA002002F075FA562002F072FA77
:1030A000002002F06FFA762002F06CFA002002F0A5
:1030B00069FA772002F066FA002002F063FA6620CF
:1030C00002F060FA002002F05DFA882002F05AFA5D
:1030D000002002F057FA992002F054FA002002F082
:1030E00051FABB2002F04EFA002002F04BFA992070
:1030F00002F048FA002002F045FA662002F042FA97
:10310000002002F03FFA552002F03CFA002002F0C5
:1031100039FA552002F036FA002002F033FA452041
:1031200002F030FA002002F02DFA432002F02AFAD1
:10313000002002F027FA442002F024FA002002F0D6
:1031400021FAE720ADF800003461C6F810A0BDF800
:103150000010C9F8001035613761C6F810803220C0
:1031600002F010FA002002F00DFA552002F00AFADF
:10317000002002F007FA762002F004FA002002F0A4
:1031800001FA662002F0FEF9002002F0FBF9672048
:1031900002F0F8F9002002F0F5F9672002F0F2F9E8
:1031A000002002F0EFF9872002F0ECF9002002F095
:1031B000E9F9992002F0E6F9002002F0E3F9BB20DA
:1031C00002F0E0F9002002F0DDF9992002F0DAF9CE
:1031D000002002F0D7F9772002F0D4F9002002F0A5
:1031E000D1F9442002F0CEF9002002F0CBF95620AC
:1031F00002F0C8F9002002F0C5F9232002F0C2F95C
:10320000002002F0BFF9332002F0BCF9002002F0E8
:10321000B9F9452002F0B6F9002002F0B3F9E82030
:10322000ADF800003461C6F810A0BDF80010C9F870
:10323000001035613761C6F81080002002F0A2F955
:10324000002002F09FF9992002F09CF9002002F082
:1032500099F9872002F096F9002002F093F988206E
:1032600002F090F9002002F08DF9772002F08AF93F
:10327000002002F087F9662002F084F9002002F0B5
:1032800081F9882002F07EF9002002F07BF9AA2063
:1032900002F078F9002002F075F9BB2002F072F913
:1032A000002002F06FF9992002F06CF9002002F082
:1032B00069F9662002F066F9002002F063F95520F2
:1032C00002F060F9002002F05DF9552002F05AF991
:1032D000002002F057F9442002F054F9002002F0D7
:1032E00051F9442002F04EF9002002F04BF955202C
:1032F00002F048F9002002F045F9E920ADF800009D
:103300003461C6F810A0BDF80010C9F8001035618E
:103310003761C6F81080AA2002F034F9002002F0CC
:1033200031F9002002F02EF9002002F02BF90020E4
:10333000ADF800003461C6F810A0BDF80010C9F85F
:10334000001035613761C6F81080AA2002F01AF922
:10335000CF20ADF800003461C6F810A0BDF8001011
:10336000C9F8001035613761C6F81080002002F0FE
:1033700009F9002002F006F9002002F003F900200C
:1033800002F000F9002002F0FDF8002002F0FAF847
:10339000002002F0F7F8002002F0F4F8002002F01C
:1033A000F1F8002002F0EEF8002002F0EBF8002027
:1033B00002F0E8F8002002F0E5F8002002F0E2F860
:1033C000002002F0DFF8002002F0DCF8002002F01C
:1033D000D9F8F020ADF800003461C6F810A0BDF8AF
:1033E0000010C9F8001035613761C6F81080002060
:1033F00002F0C8F8502002F0C5F8002002F0C2F830
:10340000002002F0BFF8002002F0BCF8F320ADF875
:1034100000003461C6F810A0BDF80010C9F8001013
:1034200035613761C6F81080002002F0ABF8F92052
:10343000ADF800003461C6F810A0BDF80010C9F85E
:10344000001035613761C6F81080062002F09AF846
:10345000102002F097F8292002F094F8002002F0E2
:1034600091F83A20ADF800003461C6F810A0BDF81C
:103470000010C9F8001035613761C6F8108055207A
:1034800002F080F81120ADF800003461C6F810A0F9
:10349000BDF80010C9F8001035613761C6F810801A
:1034A0006420FDF73BFA2920ADF800003461C6F82E
:1034B00010A0BDF80010C9F8001035613761C6F8DA
:1034C00010803520ADF800003461C6F810A0BDF8BA
:1034D0000010C9F8001035613761C6F8108000206F
:1034E00002F050F85120ADF800003461C6F810A089
:1034F000BDF80010C9F8001035613761C6F81080BA
:10350000FF2002F03FF85320ADF800003461C6F808
:1035100010A0BDF80010C9F8001035613761C6F879
:1035200010802C2002F02EF85520ADF800003461F8
:10353000C6F810A0BDF80010C9F800103561376159
:10354000C6F81080822002F01DF82C20ADF8000093
:103550003461C6F810A0BDF80010C9F8001035613C
:103560003761C6F81080BDE8F88F00002DE9F84FEC
:103570004FF470445521204602F018F8651CAA212A
:10358000284602F013F8A61C5221304602F00EF82D
:10359000E71C0821384602F009F84FF2040801211F
:1035A000404602F003F80D214FF4304001F0FEFFD9
:1035B0000D214BF2010001F0F9FF0D214BF2020049
:1035C00001F0F4FF4FF436493421484601F0EEFF94
:1035D00034214BF2016001F0E9FF34214BF202602B
:1035E00001F0E4FF4FF4314A0D21504601F0DEFFB7
:1035F0004BF2011B0D21584601F0D8FF0D214BF273
:10360000021001F0D3FF34214FF4374001F0CEFF18
:1036100034214BF2017001F0C9FF34214BF20270EA
:1036200001F0C4FF00214FF4324001F0BFFF002140
:103630004BF2012001F0BAFF00214BF2022001F011
:10364000B5FF24214FF4384001F0B0FF24214BF6A0
:10365000010001F0ABFF24214BF6020001F0A6FFB0
:1036600001214FF43F4001F0A1FF0F214FF43340FF
:1036700001F09CFF0F214BF2013001F097FF0F2169
:103680004BF2023001F092FF34214FF4394001F047
:103690008DFF34214BF6011001F088FF34214BF6E9
:1036A000021001F083FF08214FF4354001F07EFF46
:1036B00008214BF2015001F079FF08214BF2025032
:1036C00001F074FF03214FF4424001F06FFF242109
:1036D0004FF43A4001F06AFF24214BF6012001F03B
:1036E00065FF24214BF6022001F060FF00214FF41A
:1036F0003C4001F05BFF78214BF6014001F056FFA2
:1037000000214BF6024001F051FF00214FF43D40F3
:1037100001F04CFF78214BF6015001F047FF0021EA
:103720004BF6025001F042FF00214FF43E4001F001
:103730003DFF64214BF6016001F038FF00214FF49A
:10374000514001F033FF33214DF2011001F02EFF03
:1037500000214DF2021001F029FF34214DF2031037
:1037600001F024FF00214DF2041001F01FFF3A2167
:103770004DF2051001F01AFF00214DF2061001F084
:1037800015FF4A214DF2071001F010FF00214DF204
:10379000081001F00BFF5C214DF2091001F006FF4B
:1037A00000214DF20A1001F001FF81214DF20B10B2
:1037B00001F0FCFE00214DF20C1001F0F7FEA621F5
:1037C0004DF20D1001F0F2FE00214DF20E1001F04D
:1037D000EDFEE5214DF20F1001F0E8FE01214DF262
:1037E000101001F0E3FE13214DF2111001F0DEFE86
:1037F00001214DF2121001F0D9FE54214DF21310A7
:1038000001F0D4FE01214DF2141001F0CFFE82210F
:103810004DF2151001F0CAFE01214DF2161001F013
:10382000C5FECA214DF2171001F0C0FE02214DF273
:10383000181001F0BBFE00214DF2191001F0B6FE88
:1038400002214DF21A1001F0B1FE01214DF21B10C0
:1038500001F0ACFE02214DF21C1001F0A7FE342154
:103860004DF21D1001F0A2FE02214DF21E1001F0DA
:103870009DFE67214DF21F1001F098FE02214DF2CE
:10388000201001F093FE84214DF2211001F08EFEF4
:1038900002214DF2221001F089FEA4214DF22310E5
:1038A00001F084FE02214DF2241001F07FFEB721C9
:1038B0004DF2251001F07AFE02214DF2261001F0A2
:1038C00075FECF214DF2271001F070FE02214DF25E
:1038D000281001F06BFEDE214DF2291001F066FE8A
:1038E00002214DF22A1001F061FEF2214DF22B105F
:1038F00001F05CFE02214DF22C1001F057FEFE217A
:103900004DF22D1001F052FE03214DF22E1001F068
:103910004DFE10214DF22F1001F048FE03214DF213
:10392000301001F043FE33214DF2311001F03EFE24
:1039300003214DF2321001F039FE6D214DF23310AA
:1039400001F034FE00214FF4524001F02FFE3321EC
:103950004DF2012001F02AFE00214DF2022001F07B
:1039600025FE34214DF2032001F020FE00214DF20E
:10397000042001F01BFE3A214DF2052001F016FE55
:1039800000214DF2062001F011FE4A214DF20720E0
:1039900001F00CFE00214DF2082001F007FE5C2131
:1039A0004DF2092001F002FE00214DF20A2001F043
:1039B000FDFD81214DF20B2001F0F8FD00214DF2BB
:1039C0000C2001F0F3FDA6214DF20D2001F0EEFDDB
:1039D00000214DF20E2001F0E9FDE5214DF20F200E
:1039E00001F0E4FD01214DF2102001F0DFFD132173
:1039F0004DF2112001F0DAFD01214DF2122001F00B
:103A0000D5FD54214DF2132001F0D0FD01214DF2DE
:103A1000142001F0CBFD82214DF2152001F0C6FDEE
:103A200001214DF2162001F0C1FDCA214DF21720EF
:103A300001F0BCFD02214DF2182001F0B7FD00217C
:103A40004DF2192001F0B2FD02214DF21A2001F0D1
:103A5000ADFD01214DF21B2001F0A8FD02214DF228
:103A60001C2001F0A3FD34214DF21D2001F09EFD2C
:103A700002214DF21E2001F099FD67214DF21F2019
:103A800001F094FD02214DF2202001F08FFD8421F0
:103A90004DF2212001F08AFD02214DF2222001F099
:103AA00085FDA4214DF2232001F080FD02214DF27D
:103AB000242001F07BFDB7214DF2252001F076FD99
:103AC00002214DF2262001F071FDCF214DF2272079
:103AD00001F06CFD02214DF2282001F067FDDE218E
:103AE0004DF2292001F062FD02214DF22A2001F061
:103AF0005DFDF2214DF22B2001F058FD02214DF227
:103B00002C2001F053FDFE214DF22D2001F04EFD41
:103B100003214DF22E2001F049FD10214DF22F20FE
:103B200001F044FD03214DF2302001F03FFD33212F
:103B30004DF2312001F03AFD03214DF2322001F027
:103B400035FD6D214DF2332001F030FD00214FF4A1
:103B5000534001F02BFD33214DF2013001F026FDE1
:103B600000214DF2023001F021FD34214DF20330ED
:103B700001F01CFD00214DF2043001F017FD3A2147
:103B80004DF2053001F012FD00214DF2063001F03A
:103B90000DFD4A214DF2073001F008FD00214DF2E4
:103BA000083001F003FD5C214DF2093001F0FEFC0C
:103BB00000214DF20A3001F0F9FC81214DF20B3069
:103BC00001F0F4FC00214DF20C3001F0EFFCA621D5
:103BD0004DF20D3001F0EAFC00214DF20E3001F003
:103BE000E5FCE5214DF20F3001F0E0FC01214DF242
:103BF000103001F0DBFC13214DF2113001F0D6FC46
:103C000001214DF2123001F0D1FC54214DF213305C
:103C100001F0CCFC01214DF2143001F0C7FC8221EF
:103C20004DF2153001F0C2FC01214DF2163001F0C9
:103C3000BDFCCA214DF2173001F0B8FC02214DF253
:103C4000183001F0B3FC00214DF2193001F0AEFC48
:103C500002214DF21A3001F0A9FC01214DF21B3076
:103C600001F0A4FC02214DF21C3001F09FFC342134
:103C70004DF21D3001F09AFC02214DF21E3001F090
:103C800095FC67214DF21F3001F090FC02214DF2AE
:103C9000203001F08BFC84214DF2213001F086FCB4
:103CA00002214DF2223001F081FCA4214DF223309B
:103CB00001F07CFC02214DF2243001F077FCB721A9
:103CC0004DF2253001F072FC02214DF2263001F058
:103CD0006DFCCF214DF2273001F068FC02214DF23E
:103CE000283001F063FCDE214DF2293001F05EFC4A
:103CF00002214DF22A3001F059FCF2214DF22B3015
:103D000001F054FC02214DF22C3001F04FFCFE2159
:103D10004DF22D3001F04AFC03214DF22E3001F01E
:103D200045FC10214DF22F3001F040FC03214DF2F3
:103D3000303001F03BFC33214DF2313001F036FCE4
:103D400003214DF2323001F031FC6D214DF2333060
:103D500001F02CFC00214FF4544001F027FC3321EA
:103D60004DF2014001F022FC00214DF2024001F031
:103D70001DFC34214DF2034001F018FC00214DF2EE
:103D8000044001F013FC3A214DF2054001F00EFC15
:103D900000214DF2064001F009FC4A214DF2074096
:103DA00001F004FC00214DF2084001F0FFFB5C2112
:103DB0004DF2094001F0FAFB00214DF20A4001F0FA
:103DC000F5FB81214DF20B4001F0F0FB00214DF29B
:103DD0000C4001F0EBFBA6214DF20D4001F0E6FB9B
:103DE00000214DF20E4001F0E1FBE5214DF20F40C4
:103DF00001F0DCFB01214DF2104001F0D7FB132153
:103E00004DF2114001F0D2FB01214DF2124001F0C0
:103E1000CDFB54214DF2134001F0C8FB01214DF2BE
:103E2000144001F0C3FB82214DF2154001F0BEFBAE
:103E300001214DF2164001F0B9FBCA214DF21740A5
:103E400001F0B4FB02214DF2184001F0AFFB00215C
:103E50004DF2194001F0AAFB02214DF21A4001F087
:103E6000A5FB01214DF21B4001F0A0FB02214DF208
:103E70001C4001F09BFB34214DF21D4001F096FBEC
:103E800002214DF21E4001F091FB67214DF21F40CF
:103E900001F08CFB02214DF2204001F087FB8421D0
:103EA0004DF2214001F082FB02214DF2224001F04F
:103EB0007DFBA4214DF2234001F078FB02214DF25D
:103EC000244001F073FBB7214DF2254001F06EFB59
:103ED00002214DF2264001F069FBCF214DF227402F
:103EE00001F064FB02214DF2284001F05FFBDE216E
:103EF0004DF2294001F05AFB02214DF22A4001F017
:103F000055FBF2214DF22B4001F050FB02214DF206
:103F10002C4001F04BFBFE214DF22D4001F046FB01
:103F200003214DF22E4001F041FB10214DF22F40B4
:103F300001F03CFB03214DF2304001F037FB33210F
:103F40004DF2314001F032FB03214DF2324001F0DD
:103F50002DFB6D214DF2334001F028FB00214FF481
:103F6000554001F023FB33214DF2015001F01EFBBF
:103F700000214DF2025001F019FB34214DF20350A3
:103F800001F014FB00214DF2045001F00FFB3A2127
:103F90004DF2055001F00AFB00214DF2065001F0F0
:103FA00005FB4A214DF2075001F000FB00214DF2C4
:103FB000085001F0FBFA5C214DF2095001F0F6FACD
:103FC00000214DF20A5001F0F1FA81214DF20B501F
:103FD00001F0ECFA00214DF20C5001F0E7FAA621B5
:103FE0004DF20D5001F0E2FA00214DF20E5001F0B9
:103FF000DDFAE5214DF20F5001F0D8FA01214DF222
:10400000105001F0D3FA13214DF2115001F0CEFA05
:1040100001214DF2125001F0C9FA54214DF2135012
:1040200001F0C4FA01214DF2145001F0BFFA8221CF
:104030004DF2155001F0BAFA01214DF2165001F07F
:10404000B5FACA214DF2175001F0B0FA02214DF233
:10405000185001F0ABFA00214DF2195001F0A6FA08
:1040600002214DF21A5001F0A1FA01214DF21B502C
:1040700001F09CFA02214DF21C5001F097FA342114
:104080004DF21D5001F092FA02214DF21E5001F046
:104090008DFA67214DF21F5001F088FA02214DF28E
:1040A000205001F083FA84214DF2215001F07EFA74
:1040B00002214DF2225001F079FAA4214DF2235051
:1040C00001F074FA02214DF2245001F06FFAB72189
:1040D0004DF2255001F06AFA02214DF2265001F00E
:1040E00065FACF214DF2275001F060FA02214DF21E
:1040F000285001F05BFADE214DF2295001F056FA0A
:1041000002214DF22A5001F051FAF2214DF22B50CA
:1041100001F04CFA02214DF22C5001F047FAFE2139
:104120004DF22D5001F042FA03214DF22E5001F0D4
:104130003DFA10214DF22F5001F038FA03214DF2D3
:10414000305001F033FA33214DF2315001F02EFAA4
:1041500003214DF2325001F029FA6D214DF2335016
:1041600001F024FA00214FF4564001F01FFA3321E8
:104170004DF2016001F01AFA00214DF2026001F0E7
:1041800015FA34214DF2036001F010FA00214DF2CE
:10419000046001F00BFA3A214DF2056001F006FAD5
:1041A00000214DF2066001F001FA4A214DF207604C
:1041B00001F0FCF900214DF2086001F0F7F95C21F3
:1041C0004DF2096001F0F2F900214DF20A6001F0B0
:1041D000EDF981214DF20B6001F0E8F900214DF27B
:1041E0000C6001F0E3F9A6214DF20D6001F0DEF95B
:1041F00000214DF20E6001F0D9F9E5214DF20F607A
:1042000001F0D4F901214DF2106001F0CFF9132132
:104210004DF2116001F0CAF901214DF2126001F076
:10422000C5F954214DF2136001F0C0F901214DF29E
:10423000146001F0BBF982214DF2156001F0B6F96E
:1042400001214DF2166001F0B1F9CA214DF217605B
:1042500001F0ACF902214DF2186001F0A7F900213C
:104260004DF2196001F0A2F902214DF21A6001F03D
:104270009DF901214DF21B6001F098F902214DF2E8
:104280001C6001F093F934214DF21D6001F08EF9AC
:1042900002214DF21E6001F089F967214DF21F6085
:1042A00001F084F902214DF2206001F07FF98421B0
:1042B0004DF2216001F07AF902214DF2226001F005
:1042C00075F9A4214DF2236001F070F902214DF23D
:1042D000246001F06BF9B7214DF2256001F066F919
:1042E00002214DF2266001F061F9CF214DF22760E5
:1042F00001F05CF902214DF2286001F057F9DE214E
:104300004DF2296001F052F902214DF22A6001F0CC
:104310004DF9F2214DF22B6001F048F902214DF2E6
:104320002C6001F043F9FE214DF22D6001F03EF9C1
:1043300003214DF22E6001F039F910214DF22F606A
:1043400001F034F903214DF2306001F02FF93321EF
:104350004DF2316001F02AF903214DF2326001F093
:1043600025F96D214DF2336001F020F955212046E9
:1043700001F01CF9AA21284601F018F95221304613
:1043800001F014F90821384601F010F900214046E7
:1043900001F00CF9CC21504601F008F900215846F3
:1043A00001F004F90521484601F000F970214FF4AD
:1043B000374001F0FBF870214BF2017001F0F6F884
:1043C00001214FF4384001F0F1F803214BF60100D0
:1043D00001F0ECF803214BF6020001F0E7F80321AD
:1043E0004BF6030001F0E2F802214FF43C4001F0EB
:1043F000DDF800214BF6014001F0D8F800214BF622
:10440000024001F0D3F8D0214FF4494001F0CEF83A
:1044100002214CF6011001F0C9F850214CF60210AF
:1044200001F0C4F850214CF6031001F0BFF8502100
:104430004CF6041001F0BAF800214FF4545001F08A
:10444000B5F855214FF4685001F0B0F84FF488509A
:10445000ADF80000144C2D0625616E002661BDF8F4
:104460000000124F38604FF40008C4F810804FF07D
:104470008009C4F810904FF4007AC4F810A001200D
:10448000FCF74CFA4FF42450ADF80000256126618A
:10449000BDF800003860C4F81080C4F81090C4F86B
:1044A00010A0BDE8F88F0000001001400C0C014086
:1044B0002DE9F84FE220ADF80000AC4C4FF08075CC
:1044C00025616E002661BDF80010DFF8A482C8F8EF
:1044D00000106F1027614FF08009C4F810904FF45E
:1044E000007AC4F810A01D2001F04CF8022001F061
:1044F00049F8042001F046F80120FCF70FFA4FF0CC
:10450000E00BADF800B025612661BDF80010C8F8D9
:1045100000102761C4F81090C4F810A0012001F029
:1045200031F80A20FCF7FAF9ADF800B025612661F0
:10453000BDF80010C8F800102761C4F81090C4F846
:1045400010A0032001F01EF80C20FCF7E7F9012071
:10455000ADF8000025612661BDF80010C8F8001014
:104560002761C4F81090C4F810A00A20FCF7D6F90F
:10457000E620ADF8000025612661BDF80010C8F8FE
:1045800000102761C4F81090C4F810A02F2000F08C
:10459000F9FFFF2000F0F6FFFF2000F0F3FFB0204E
:1045A000ADF8000025612661BDF80010C8F80010C4
:1045B0002761C4F81090C4F810A0202000F0E2FF9A
:1045C000002000F0DFFF032000F0DCFF40F21F308E
:1045D00000F0D8FF012000F0D5FF40F2DF1000F01E
:1045E000D1FF002000F0CEFFB420ADF8000025611F
:1045F0002661BDF80010C8F800102761C4F81090BB
:10460000C4F810A0042000F0BDFF40F21F4000F0ED
:10461000B9FF002000F0B6FF2E2000F0B3FF00200D
:1046200000F0B0FF002000F0ADFF002000F0AAFF76
:10463000002000F0A7FFB620ADF80000256126613C
:10464000BDF80010C8F800102761C4F81090C4F835
:1046500010A0022000F096FF4FF4037000F092FFCC
:10466000002000F08FFF172000F08CFF152000F0D5
:1046700089FF002000F086FF002000F083FFF0207B
:10468000ADF8000025612661BDF80010C8F80010E3
:104690002761C4F81090C4F810A0032000F072FF46
:1046A0002920ADF8000025612661BDF80010C8F88A
:1046B00000102761C4F81090C4F810A0D020ADF805
:1046C000000025612661BDF80010C8F800102761C0
:1046D000C4F81090C4F810A0002000F053FFBE20D2
:1046E000ADF8000025612661BDF80010C8F8001083
:1046F0002761C4F81090C4F810A0052000F042FF14
:10470000FE2000F03FFF012000F03CFF002000F001
:1047100039FF002000F036FF002000F033FFB82002
:10472000ADF8000025612661BDF80010C8F8001042
:104730002761C4F81090C4F810A0032000F022FFF5
:10474000012000F01FFFBA20ADF8000025612661AE
:10475000BDF80010C8F800102761C4F81090C4F824
:1047600010A0BDE8F84F012000F00CBF0010014080
:104770000C0C01402DE9F84F1120ADF80000CB4C96
:104780004FF0807525616E002661BDF80010DFF8DE
:1047900020A3CAF800106F1027614FF08008C4F8FA
:1047A00010804FF40079C4F810907820FCF7B6F828
:1047B0003620ADF8000025612661BDF80010CAF86A
:1047C00000102761C4F81080C4F81090002000F099
:1047D000D9FE3A20ADF8000025612661BDF8001031
:1047E000CAF800102761C4F81080C4F810900520A2
:1047F00000F0C8FEB220ADF8000025612661BDF8CA
:104800000010CAF800102761C4F81080C4F8109096
:104810000C2000F0B7FE0C2000F0B4FE002000F0E9
:10482000B1FE332000F0AEFE332000F0ABFEB72027
:10483000ADF8000025612661BDF80010CAF800102F
:104840002761C4F81080C4F81090352000F09AFE5B
:10485000BB20ADF8000025612661BDF80010CAF844
:1048600000102761C4F81080C4F81090322000F0C6
:1048700089FEC020ADF8000025612661BDF800105A
:10488000CAF800102761C4F81080C4F810900C20FA
:1048900000F078FEC220ADF8000025612661BDF869
:1048A0000010CAF800102761C4F81080C4F81090F6
:1048B000012000F067FEC320ADF8000025612661ED
:1048C000BDF80010CAF800102761C4F81080C4F8C1
:1048D0001090102000F056FEC420ADF800002561B5
:1048E0002661BDF80010CAF800102761C4F81080D6
:1048F000C4F81090202000F045FEC620ADF800005E
:1049000025612661BDF80010CAF800102761C4F8BF
:104910001080C4F810900F2000F034FED020ADF8C5
:10492000000025612661BDF80010CAF8001027615B
:10493000C4F81080C4F81090A42000F023FEA12039
:1049400000F020FEE020ADF8000025612661BDF8F2
:104950000010CAF800102761C4F81080C4F8109045
:10496000D02000F00FFE002000F00CFE022000F02E
:1049700009FE072000F006FE0A2000F003FE2820B2
:1049800000F000FE322000F0FDFD442000F0FAFDB2
:10499000422000F0F7FD062000F0F4FD0E2000F0AC
:1049A000F1FD122000F0EEFD142000F0EBFD1720C9
:1049B00000F0E8FDE120ADF8000025612661BDF8BA
:1049C0000010CAF800102761C4F81080C4F81090D5
:1049D000D02000F0D7FD002000F0D4FD022000F030
:1049E000D1FD072000F0CEFD0A2000F0CBFD2820ED
:1049F00000F0C8FD312000F0C5FD542000F0C2FDDC
:104A0000472000F0BFFD0E2000F0BCFD1C2000F090
:104A1000B9FD172000F0B6FD1B2000F0B3FD1E20ED
:104A200000F0B0FD2A20ADF8000025612661BDF838
:104A30000010CAF800102761C4F81080C4F8109064
:104A4000002000F09FFD002000F09CFD002000F001
:104A500099FDEF2000F096FD2B20ADF800002561B8
:104A60002661BDF80010CAF800102761C4F8108054
:104A7000C4F81090002000F085FD002000F082FDB9
:104A8000012000F07FFD3F2000F07CFD2920ADF8E3
:104A9000000025612661BDF80010CAF800102761EA
:104AA000C4F81080C4F81090BDE8F88F00100140E1
:104AB0000C0C01402DE9F84FAC48816941F0080128
:104AC0008161816901F008010091816941F0010172
:104AD0008161806900F001000090A548416821F0E3
:104AE000E06141F000714160A24D80232B614020C4
:104AF0002861C1002961800028619F4A4FF6FF7735
:104B000017609E48401EFDD2D320ADF800004FF044
:104B1000807028614FF0007BC5F810B0BDF80040F0
:104B200014604010286199462B618013286100F0C1
:104B300029F9934CA08000F025F9A08000F022F91B
:104B400007EA0020A08000F01DF9A18847F28976CD
:104B50000843A0F51341A08041397CD00420ADF872
:104B6000000080052861C5F810B0BDF8001082482B
:104B700001604FF400002861C5F81090801328618F
:104B800000F000F9A08000F0FDF8A08000F0FAF835
:104B900007EA0020A08000F0F5F8A1880843A0F5FE
:104BA0000541A08052397DD0B04254D0D420ADF818
:104BB00000004FF08070286140002861BDF80010AF
:104BC000DFF8B4B1CBF80010801028618020286194
:104BD0008000286100F0D6F8A08000F0D3F8A08013
:104BE00000F0D0F807EA0020A08000F0CBF8A18800
:104BF0000843A0F5A641A08010397FD055214FF47D
:104C0000704000F0D3FCAA214FF2010000F0CEFC6E
:104C100052214FF2020000F0C9FC08214FF20300BC
:104C200000F0C4FC01214FF2040000F0BFFC4FF47F
:104C30004540ADF800004FF08079C5F810904FF076
:104C40000078C5F81080BDF80010DA46CBF80010E7
:104C50004FF4000B00E051E0C5F810B0802028614F
:104C60008000286100F08EF8214607EA0020888045
:104C70004CF20150ADF80000C5F81090C5F8108056
:104C8000BDF80010CAF80010C5F810B080202861E7
:104C90008000286100F076F8214689880843214683
:104CA000888000E031E00520FBF738FE204681884F
:104CB000A1F5AA40103821D0A120ADF80000C5F818
:104CC0001090C5F81080BDF80010CAF80010C5F8A3
:104CD00010B0802028618000286100F053F8A08087
:104CE00000F050F807EA0020A08000F04BF8A188FF
:104CF0000843A0F5AE41A080613908D0A088B04239
:104D000009D100BFFFF736FD24E0A680FAE741F69F
:104D10006310A08019E0A0F5134141390CD0A0F533
:104D2000A64110390BD0A0F5AA4110390AD0A0F540
:104D3000C851633909D00DE0FDF770F80AE0FDF7BE
:104D400087FA07E0FEF712FC04E0FFF7B1FB6420EE
:104D500000F0B2FB0020FCF76FFF4FF48060286189
:104D60003846BDE8F84FFCF731BF000000100240A4
:104D700000000140001001400C0C0140FFFF010049
:104D8000F8000020F0B585B04FF6FF7501AA0020AD
:104D900001240326009582E85100104F69463846E9
:104DA000FBF7CEFD0E482102016149040161C910E3
:104DB00001610A4908310968ADF81010402101610C
:104DC00041150161CDE90054CDE9024669463846F6
:104DD000FBF7B6FDBDF8100005B0F0BD000C0140BA
:104DE000001001402DE9F84FBA4C00252146A27968
:104DF000898841F66316012A01D01AB10CE0B1424C
:104E000002D109E0B14207D1082805D2DFE800F05D
:104E1000161812140C19100E082812D2DFE800F030
:104E2000110406080A0C0E1080250AE0402508E04F
:104E3000C02506E0202504E0602502E0A02500E072
:104E4000E025362045F21058414500D10002A1F579
:104E50001342413A03D0A1F5EE42893A01D145F01F
:104E60000805294600F0A2FBB4F804C0B4450AD0F6
:104E7000A8062088618802D5884202D303E08842D0
:104E800001D92180608080259348A9046F04934A4A
:104E90008B1046154FF0000E4FF4807BC4457DD13A
:104EA000A1466489ADF8004007610161BDF800C00A
:104EB000C2F800C0036105610661DC46C0F810B0AD
:104EC0000161F246C2F800E003610561066104F188
:104ED0000108ADF8008007610161BDF80080C2F8EB
:104EE0000080036105610661C0F810C00161C2F86D
:104EF00000A003610561066104F10208ADF80080BD
:104F000007610161BDF80080C2F80080036105619E
:104F10000661C0F810C00161B9F80080A8F1010B6A
:104F20004FEA2B28C2F80080036105610661E41C8A
:104F3000ADF8004007610161BDF8004014600361F5
:104F400005610661C0F810C001610BF0FF04146038
:104F5000036105610661B9F80C40ADF800400761D6
:104F60000161BDF80080C2F800800361056106613F
:104F7000C0F810C00161C2F800A0036105610661BC
:104F800004F10108ADF8008007610161BDF80080FF
:104F9000C2F8008003610561066100E033E0C0F8FB
:104FA00010C00161C2F800A003610561066104F14F
:104FB0000208ADF8008007610161BDF80080C2F809
:104FC0000080036105610661C0F810C00161B9F895
:104FD0000280A8F101094FEA2928C2F80080036184
:104FE00005610661E41CADF8004007610161BDF890
:104FF00000401460036105610661C0F810C00161E2
:1050000009F0FF015FE0B4F80AC0ADF800C0BA468D
:1050100007610161BDF800701760036105610661F9
:105020005F46C0F810B00161F446C2F800E00361C9
:1050300005610661C0F810B00161C2F800E00361CB
:1050400005610661C0F810B00161B4F80080A8F1F4
:1050500001094FEA2928C2F8008003610561066151
:105060000761016109F0FF08C2F800800361056172
:105070000661B4F80C80ADF80080C0F810A00161A2
:10508000BDF80080C2F80080036105610661076118
:105090000161C2F800C00361056106610761016139
:1050A000C2F800C00361056106610761016164889F
:1050B000641E4FEA242CC2F800C00361056106613A
:1050C00007610161E1B21160036105610661BDE83C
:1050D000F88F0000F8000020001001400C0C014087
:1050E0002DE9F34F81B0A34B01981D469A884FEAF2
:1050F000102C00F0FF0E4FEA112B01F0FF0A9E4822
:10510000AF896E89A2F5C8544FF000714FF0800945
:105110004FF48078633C44D0A2F5AA43103BADF82D
:1051200000604FF0807202610161BDF80030934A67
:1051300013604FF4000303614C46C0F810904FF425
:1051400000750561C0F810800161C2F800C00361FC
:10515000C0F8109005617DD0C0F810800161C2F8E0
:1051600000E0036104610561ADF800704E10066156
:105170000161BDF800601660036104610561C0F85B
:10518000108001615E461660036104610561C0F82C
:1051900010800161C2F800A0036104610561BDE8EF
:1051A000FE8F744A734B92791D88002A70D0ADF837
:1051B00000604FF0807202610161BDF800306F4AFB
:1051C00013604FF400030361C0F81090541504619C
:1051D000C0F810800161C2F800C00361C0F81090EF
:1051E0000461C0F810800161C2F800E00361C0F8FA
:1051F00010900461C0F8108001616D1E2E121660BF
:105200000361C0F810900461C0F810800161EDB234
:1052100015600361C0F810900461564DADF8007040
:105220004FF0807202610161BDF80030534A136093
:105230004FF4000303614C46C0F810905615066108
:10524000C0F810800161C2F800B00361C0F810908E
:10525000066100E05AE0C0F810800161C2F800A0C9
:105260000361C0F810900661C0F8108001616D887C
:105270006D1E2F121760036104610661C0F8108073
:105280000161E9B2116003610461066187E7FFE72C
:10529000019AADF80060AA1A521E95B24FF08072C2
:1052A00002610161BDF80030344A13604FF400031D
:1052B00003614C46C0F810904FF4007CC0F810C059
:1052C000C0F810800161002616600361C0F81090DC
:1052D000C0F810C0C0F81080016116600361C0F80A
:1052E0001090C0F810C0C0F8108001612E0A16603E
:1052F00003610461C0F810C0C0F810800161EDB214
:10530000156003610461C0F810C086E7761CADF833
:1053100000604FF0807606610161BDF800601660A4
:10532000036104610561C0F810800161C2F800E00A
:10533000036104610561ADF800704FF0807606618D
:105340000161BDF800601660036104610561C0F889
:1053500010800161C2F800B00361046105617F1C27
:10536000ADF800704FF0807606610161BDF8006015
:1053700009E70000F8000020001001400C0C01407B
:105380002DE9FF4F1D460C468B46580700D00120E3
:1053900000EBD50069084843203A00F0FF0AD0B27C
:1053A0000C2D0AD0102D0ED0182D10D0202D49D143
:1053B000254901EB8016002041E0244900EB400024
:1053C00001EB8006F7E7224901EB0016F3E700EB5B
:1053D000C001204800EB8106EDE700BF16F8087019
:1053E0004FF00009380601D50E9A03E00D9828B950
:1053F0001948026821460098FCF7C8FC7806070E99
:105400001648641CA4B24088A0421BD9A4EB0B0030
:10541000A8420AD100985C46401C80B200900F4818
:105420000188009881420DD906E009F1010000F0E1
:10543000FF09B9F1080FD5D308F10100C0B28046C9
:105440005045CBD3BDE8FF8F7C710008BC590008E4
:10545000305E00082064000818000020F8000020DA
:105460002DE9FC4F044600F0FF0910190D46DDE957
:105470000BB61FFA80F8581987B24FF0000A13E0F4
:10548000444503D305EB0B004C4685B2BD4210D218
:105490000D985B46CDE900A029462046FFF770FF36
:1054A00004EB5B0084B2761C3278A2F120005E2807
:1054B000E6D9BDE8FC8F00002DE9F84FBE21ADF81C
:1054C00000102D4C4FF0807121614D002561BDF819
:1054D00000102A4E3160AF1027614FF08008C4F8E9
:1054E00010804FF40079C4F810904FF4807AC4F81B
:1054F00010A02561052131602761C4F81080C4F82F
:105500001090C4F810A0256100F03BF94FF066320E
:105510001B4B00F049F900F007F930602761C4F82F
:105520001080C4F81090C4F810A0256101203060EC
:105530002761C4F81080C4F81090C4F810A0256149
:10554000FF2030602761C4F81080C4F81090C4F8C0
:1055500010A02561002030602761C4F81080C4F8D5
:105560001090C4F810A0256130602761C4F8108045
:10557000C4F81090BDE8F88F001001400C0C0140F9
:105580006666044007494FF480720A6152040A615A
:10559000054A10604FF40000086180200861800017
:1055A00008617047001001400C0C0140F8B5ADF8DF
:1055B00000000C484FF08072026152000261BDF899
:1055C0000040094B1C60941004618025056146155C
:1055D0000661871507610261196004610561066152
:1055E000F8BD0000001001400C0C01400EB5FBF7A7
:1055F000B7FAFCF7EFF8FCF721F8FCF701F8FCF735
:10560000C7F832480068C16841F01001C160FFF777
:1056100051FA0120FCF710FB0020FCF7D7FA2C4DC3
:105620000027DFF8B0A04FF6FF7848F21F4B102498
:105630004FF478492F60284A28A12648FAF7EAFD56
:1056400046469623DC221E211420CDF80080FCF76C
:10565000C3FBC5F800B024A0CDE900401823C82240
:10566000282102961E20FFF7FBFE2F6023A0CDE924
:1056700000401023C822462102961E20FFF7F0FEAC
:1056800023A0CDE900404E461023C8225A21CDF870
:1056900008901E20FFF7E4FECDE9004A1023C8223F
:1056A0006E211E200296FFF7DBFE0C201F221BA19D
:1056B0008DE807000346C82282211E20FFF7D0FE96
:1056C0004FF4FA70FBF72AF9B5E700002C00002030
:1056D000180000201C000020000000207265636597
:1056E0006976653A257300004920616D207069650F
:1056F0006365206F66207368697400005446544CDB
:1057000043442056332E30205445535400000000AB
:105710004D61646520427920434A43003230323380
:105720002F312F37000000004FEA1153A3F580639B
:10573000D3F11E03A8BFD3F1200C08DB4FF00042C9
:1057400042EAC12252EA505232FA03F0704709424B
:105750000BD4102BC4BF0020704703F5787CBCF13C
:10576000FF3F05D04FF0FF3070474FF0000070470B
:1057700070B500F0C3F800BF499224800020704744
:10578000F0E7B0FA80F310FA03F10AD0C3F11D0379
:1057900003F580634FEA41504FEA035202EBD121F7
:1057A00070474FF000007047DFF848C170B51CEA41
:1057B000111E1EBF1CEA13159EEA0C0F95EA0C0F72
:1057C00000F06F8081EA030423EA4C134EEAD47E92
:1057D00021EA4C1141F4801143F48013AE44A1FB43
:1057E000024CA0FB0365AEF17F7E361955EB0C052C
:1057F000A1FB034C4CF10003A0FB021C16EB0C06B2
:10580000654153F10003094218BF46F0010613F445
:10581000007F0BD14FEA03314FEA0530340341EAF0
:10582000155140EA16506FF003020AE04FEAC32117
:105830004FEAC520F40241EA555140EA56506FF054
:10584000020202EB2E4201EB025585EACE710AD02C
:105850005FEA440C18BF24F0004450F1000041F10D
:10586000000120EAD47040F2FE7C624500D270BD97
:10587000A84214BF4FF080444FF04044002E08BFB0
:105880000024BEF1806FA8BFA1F1C041BDE8704007
:1058900080F282804FF0000001F1C04101F0004130
:1058A00070479EEA0C0F0CEA131518BF95EA0C0F0F
:1058B00006D04FF0000081EA030E0EF0004170BDEB
:1058C00000F01CF88900013E00F007B800F009B8AC
:1058D0004FEA430C5FEA5C5C08D081EA030100F008
:1058E0005BB84FEA410C5FEA5C5CF6D14FF0000018
:1058F000014970470000FF070000F87F0EF1020E1B
:105900002EF0030E5EF8046B364205D4012A43EBF9
:10591000030515F5001F12D8012841EB010C1CF5F9
:10592000001F0CD80ED14FEAD17C15F5001F0CEBEF
:105930004C0C0CF1020C08BF4CEBD37C04E04FF094
:10594000080C01E04FEAD37C0CEB4C0526FA05F677
:1059500006F00706B6F1040C06D20EEB860CBDE885
:1059600070404CF0010C6047DFE80CF0090B0202BC
:105970004FF000414FF00000A1F5002170BD194625
:105980001046012851EB010418BFD4F5001484BF60
:10599000002001F0004170BD0808A0F500114FEA99
:1059A0003101704700000000000000000102030404
:1059B00006070809000000000102030400000000BF
:1059C0000000000000000000000000003F40000058
:1059D00000000000000030004000300040000000E7
:1059E00009000BC03D000BC03D00090018C0244059
:1059F0007FE0224031800000180024C01B000D8091
:105A00003240018003801C4027401C80074000403A
:105A10001000600000000000000000000000000016
:105A200000001F80204040200000402020401F80B8
:105A300000000000090006001F80060009000000A9
:105A4000040004003F800400040000000010006017
:105A50000000000000000000040004000400040036
:105A600004000000000000400000000000000000F2
:105A7000002001C006003800400000001F802040C8
:105A8000204020401F800000000010403FC0004028
:105A90000000000018C021402240244018400000AF
:105AA00010802040244024401B80000002000D0094
:105AB00011003FC0014000003C80244024402440AD
:105AC000238000001F8024402440344003800000D5
:105AD0003000200027C03800200000001B80244038
