:020000040800F2
:10000000B00800200902000897320008C930000833
:1000100095320008F51E0008E936000800000000CF
:100020000000000000000000000000009B320008FB
:100030003B1F00080000000099320008113300083F
:1000400023020008230200082302000823020008FC
:1000500023020008230200082302000823020008EC
:1000600023020008230200082302000823020008DC
:100070002302000823020008F91E0008051F0008DB
:1000800023020008230200082302000823020008BC
:1000900023020008230200082302000823020008AC
:1000A000230200082302000823020008230200089C
:1000B000230200082302000823020008230200088C
:1000C000230200082302000823020008230200087C
:1000D000230200089D3600082302000823020008BE
:1000E000230200082302000823020008230200085C
:1000F000230200082302000823020008230200084C
:10010000230200082302000823020008230200083B
:10011000230200082302000823020008230200082B
:10012000230200082302000823020008230200081B
:1001300000F002F800F058F80AA090E8000C8244A1
:100140008344AAF10107DA4501D100F04DF8AFF27E
:10015000090EBAE80F0013F0010F18BFFB1A43F0A5
:100160000103184770C7000090C70000103A24BF71
:1001700078C878C1FAD8520724BF30C830C144BF0C
:1001800004680C607047000000230024002500264E
:10019000103A28BF78C1FBD8520728BF30C148BFEA
:1001A0000B607047662909F00083642900F096808F
:1001B000782900F0CF80732900F0978400207047E1
:1001C0001FB59DE8030001F09FF800F0A5FC0400B6
:1001D0000020002108F078FDE06000F09DFD1FBDCB
:1001E00010B500F002FE10BD00F06AFE1146FFF7E8
:1001F000E7FF08F02FF801F059F803B4FFF7F0FF1C
:1002000003BC01F013FA0000094880470948004781
:10021000FEE7FEE7FEE7FEE7FEE7FEE7FEE7FEE7B6
:10022000FEE7FEE704480549054A064B7047000013
:100230007333000831010008B0020020B00800202C
:10024000B0040020B00400200FB4044910B503AA84
:10025000029800F04FFC10BC5DF814FBA8010020D0
:100260000FB41CB5074B06AA7B446946009005985D
:1002700000F011FC0020694600F020FC1CBC5DF879
:1002800014FB00005108000070B50C460546012A19
:1002900005D02878800600D5EA69002302E0012312
:1002A00005E05B1C934202D2E05C0028F9D1A8690A
:1002B000E618C01AA861286A184428622846AFF3D5
:1002C000008004E0D5E9012114F8010B9047B44205
:1002D000F8D32846AFF3008070BD00002DE9F0414F
:1002E0000646002410687529314616A510D0AFF3D4
:1002F0000080002802DA404213A507E031688A072F
:1003000001D512A502E0490704D511A5012401E099
:10031000AFF3008000210A2206F1240709E0B0FBB8
:10032000F2FCB0FBF2F302FB1C00303078541846AC
:10033000491C0028F3D123462A463046BDE8F04147
:1003400000F03BB9000000002D0000002B00000071
:100350002000000070B504460D4621461068AFF33A
:1003600000802188090502D50F4A7A4402E00E4A2E
:100370007A440E32002104F1240305E000F00F0658
:100380000009965D5E54491C0028F7D120780023AF
:10039000000704D5702D02D009B102231132204686
:1003A000BDE8704000F009B910C400002DE9F05F0D
:1003B000894604464FF0000ADFF824B1FB44C0F838
:1003C00020A02046E168884700287DD0252806D057
:1003D000D4E901219047206A401C2062F1E7002502
:1003E0005F462046E16888472028064607DB312E15
:1003F00005D2B81910F8200C08B10543F1E7A80799
:1004000001D525F00405C4F81CA00027C4F818A0E5
:100410002A2E09D0304603F08CF938B304EB870854
:10042000303EC8F8186019E059F8041B204604EB68
:1004300087029161E1688847012F064618D1E0697B
:10044000002820DA25F020051DE0D8F8180000EB80
:10045000800006EB40003038C8F818002046E168FC
:100460008847064603F065F90028EED1012F0AD02F
:100470002E2E08D12046E16888477F1C0646022FB1
:1004800045F02005C4DBA069002803DA404245F0AE
:100490000105A061E80701D025F01005A6B1A6F17D
:1004A0004100192802D8203645F400654A463146F5
:1004B000204625604D46FFF775FE60B1012807D044
:1004C000ED1D25F0070000E007E000F1080978E7DE
:1004D00005F1040975E730467AE7206ABDE8F09F28
:1004E000E6C300004FF0000200B51346944696465E
:1004F000203922BFA0E80C50A0E80C50B1F1200137
:10050000BFF4F7AF090728BFA0E80C5048BF0CC0E4
:100510005DF804EB890028BF40F8042B08BF704742
:1005200048BF20F8022B11F0804F18BF00F8012BB4
:10053000704700004FF0013C50F8042B51F8043B89
:100540009A4221D1A2EB0C03934313EACC1317D1A7
:1005500050F8042B51F8043B9A4215D1A2EB0C033E
:10056000934313EACC130BD150F8042B51F8043BFE
:100570009A4209D1A2EB0C03934313EACC13DBD0CC
:100580004FF00000704700BFD01A01BAB1FA81F1F4
:1005900001F0180122FA01F0CB40C1F12001DBB2D9
:1005A000C0B2C01A2CFA01F3D11A914311EAC31157
:1005B000E6D170477047704770472DE9F0470D4608
:1005C00099469246044600F124080168880604D53D
:1005D000E06921F01001216000E00120A84201DD66
:1005E000471B00E00027A1697A1902EB0900081AED
:1005F000A0612078C00602D42046AFF30080002618
:1006000008E0D4E901211AF806009047206A401C4E
:10061000761C20624E45F4DB2078C0060AD52046C1
:10062000AFF3008006E0D4E9012130209047206A32
:10063000401C2062381EA7F10107F4DC07E0D4E972
:10064000012118F805009047206A401C2062281EEE
:10065000A5F10105F3DC2046AFF300802078000609
:1006600002D50220BDE8F0870120FBE770472DE9A5
:10067000FF4F0C461E464FF0FF378BB0D2E900010A
:10068000DDF860800A908A46C1F30A5505B93D46F7
:10069000002108464FF00000BAF1000F00F44000BE
:1006A00005DA00EB80004FF4400101EA50004FEA08
:1006B0009059B9F1010F00DDB9460A9850EA4A0095
:1006C0000ED044F61050A5F2FF3545432F14B8F173
:1006D000000F1ED07542291E1EDDC9F100021CE06C
:1006E000B8F1010F4FF0000001D0302103E0F243D8
:1006F00005E02154401CB042FBDB304600220021C3
:1007000021540B99C1F80880C1E900200FB0BDE861
:10071000F08FBD1B6D1CDEE74A4600DA694206A871
:1007200000F084FA06AB93E8070003AB83E8070008
:1007300050460A9901F016F88DE80700A0F5005020
:100740001F3800900398002D0ADD42F21F014A462F
:100750000844002303A90390684601F07FFA09E0EA
:10076000A0F500504A461F38002303A903906846AD
:1007700001F089FA8DE807000004000C03D04FF067
:10078000FF30410800E01046B8F1000F03D000220E
:10079000009215461EE0751E05D400F0C1F93032F6
:1007A00062556D1EF9D5B3460122084302D00022DE
:1007B0007F1C04E02078302801D100227F1E002A0F
:1007C000099784D01DE0112D07DA00F0A9F9303225
:1007D00062556D1C50EA0102F5D1084302D0009821
:1007E000C8B10EE00021681E05E0235C625C635422
:1007F0002254401E491C8142F7DBAB46A81B401E19
:100800000990002004F80B000B98099AC0F80880A2
:10081000C0E9002B7AE711264FF0000857E72DE9D1
:10082000F04F88460446D21D22F0070191B0D1E96D
:100830000001CDE90A0102F058FF02460B98C00FF3
:1008400001D02D2007E02068810701D52B2002E090
:10085000202101EAC000032A099001D0072A05DB04
:1008600003464146204600F0A1F90BE120788006BE
:1008700001D5E06900E00620B8F1650F814606D099
:10088000B8F1660F18D0B8F1670F70D131E00020D1
:10089000B9F1110F009001DB112301E009F101030F
:1008A0000AAA01A90CA8FFF7E2FEDDE90C700026F8
:1008B00009F10105834647E001204B4600904FF0C7
:1008C00000470AAA01A90CA8FFF7D1FEDDE90DB087
:1008D0000C995D46002610B909F101000D18B9EB1D
:1008E000050003D4C0F1FF3609F10105A5EB0900AD
:1008F0002BE0B9F1010F01DA4FF001090020B9F145
:10090000110F0090484601DD112300E003460AAABA
:1009100001A90CA8FFF7ABFEDDE90C704D460026DF
:100920008346207800070AD4AB4500DA5D4601A86B
:10093000012D04DD411911F8011C302907D04F4564
:1009400002DA17F1040F04DA012082460FE06D1E6F
:10095000EEE7002F02DCED1B3E4403E0781CA842CA
:1009600000DD7D1CB81B00F1010A4FF00047207824
:10097000000703D4AA4501DB4FF0FF3A0021B7F18D
:10098000004F0DF143088DF8431024D002202B2393
:10099000002F01DA7F422D230A21021EA0F101005F
:1009A00000DC5FB197FBF1FC97FBF1F201FB1C7CD3
:1009B00017460CF1300C08F801CDEEE7A8F1010064
:1009C00003702188090501D5452100E06521A0F1CA
:1009D000010800F8011C09980FA9A1EB0807FF1DE9
:1009E00000B10120411901EBEA70A1693844081AED
:1009F000401EA0612078C00602D42046AFF30080DC
:100A0000099828B1D4E901219047206A401C20624E
:100A10002078C00622D52046AFF300801EE0002ECD
:100A200004DBB34502DD01A8805D00E03020D4E99D
:100A300001219047206A401C2062761CAAF1010027
:100A40005FEA000A0AD100F067F8C0680168405CFC
:100A5000D4E901219047206A401C2062281EA5F19C
:100A60000105DCDC07E0D4E9012118F8010B90470F
:100A7000206A401C2062381EA7F10107F3DC2046E3
:100A8000AFF30080032011B041E6000001694A1C69
:100A900002610878704700B58FB0CDE901310021BF
:100AA000059105497944CDE9031011466846FFF7E1
:100AB0007DFC0FB000BD0000E5FFFFFF0A6802F8F3
:100AC000010B0A60704710B5436913B1AFF30080A2
:100AD00001E0FFF7D9FB012010BD127800F12401DD
:100AE0000A7000224A700122EDE711684FF0FF32D0
:100AF000E9E70000074B70B50D467B44FFF7CBFFDD
:100B00000446284600F004F910B14FF0FF3070BDE4
:100B1000204670BD0F310000004870477002002071
:100B200030B5B0F10A024FEA900E71F100034EEABF
:100B3000817EB0EB0E0061EB91014FEA101E4EEA90
:100B4000017E10EB0E0041EB11114FEA102E4EEA20
:100B5000016E10EB0E0041EB11214FEA104E4EEAF0
:100B6000014E10EB0E0041EB1141401841F1000124
:100B70004FEAD00040EA41704FEAD10110EB800506
:100B80004FEA810444EA907444EB01046D1944EB8C
:100B90000404521BA3414FF0000348BF0A3200D5A2
:100BA00030BD401C41F1000130BD00002DE9F04195
:100BB0001F46044603260168072A01F4006004DB8F
:100BC00008B116A505E016A503E008B115A500E0DB
:100BD00015A521F010002060A069C01EA0610FB112
:100BE000401EA0612046AFF300804FB1D4E901213F
:100BF00038469047206A401C2062C01C206206E0F4
:100C0000206AFAE7D4E9012115F8010B9047761E16
:100C1000F8D22046AFF30080BDE8F0814E414E008F
:100C20006E616E00494E4600696E66002DE9F04720
:100C3000814616468AB0354878440DC88DE80D00C7
:100C400032487844801C03AC0DC884E80D0041F69E
:100C50009B300844372190FBF1F290FBF1F5A5F1B0
:100C6000800501FB12041B3C02D56442012000E018
:100C70000020DFF898A080460027FA44AAF1BE0AB7
:100C80000EE0E0070AD03246684607EB4701012331
:100C90000AEB810100F0F7FF8DE8070064107F1C6C
:100CA000002CEED1194F7F44AE3F19E0E80715D074
:100CB00007EB04100DF1180A90E80E008AE80E0008
:100CC000C068F04201D1981908903246012306A964
:100CD00003A800F0D8FF03AB83E807006D10641C85
:100CE000002DE3D14FF0010332466946B8F1000F01
:100CF00003A802D000F0B2FF01E000F0C4FFC9E990
:100D00000001C9F808200AB0BDE8F087F8BB000070
:100D1000007B00F08000704710B542485421FFF777
:100D2000E1FB41485421FFF7DDFB40485421FFF728
:100D3000D9FB3F493B483C4A3F4B08603D490A606C
:100D40003A491960531C0365481C10650120086569
:100D50003B48344A39A1784400F00CFA20B93848AD
:100D600078440A3800F0ABFA37482F4A35A1784466
:100D700000F000FA20B9344878440A3800F09FFAAD
:100D800032482A4A2FA1784400F0F4F920B92F48BC
:100D900078440A3800F093FA40232248DC0000210E
:100DA000224600F0C4F920B125487844543800F0B8
:100DB00086FA1D4822464023002100F0B8F920B1F0
:100DC00021487844543800F07AFA18482246102313
:100DD000002100F0ACF9002806D01C487844BDE89A
:100DE0001040563800F06BBA10BD104870B5006D59
:100DF00020F001040B4800F033FA0B4800F030FA01
:100E00000A4800F02DFA09E0206D20F00105204687
:100E100000F026FA204600F078F82C46002CF3D19A
:100E200070BD000054010020A8010020FC0100203A
:100E30006C00002070000020740000207200000090
:100E4000F2BA000077000000DEBA0000CABA000063
:100E50000EB5CDE9000100F0C9FB02906946012002
:100E6000ABBE0EBD08B5694600900220ABBE08BD02
:100E70001FB58DE8070069460520ABBE04B010BD64
:100E80001FB58DE80F0069460620ABBEF6E708B532
:100E9000694600900920ABBE08BD1CB5CDE9000134
:100EA00069460A20ABBE1CBD704708B56946009074
:100EB0000C20ABBE08BD0000004870475002002067
:100EC0007546FFF7F9FFAE4605006946534620F028
:100ED0000700854618B020B5FFF7A4F9BDE820400B
:100EE0004FF000064FF000074FF000084FF0000BE6
:100EF00021F00701AC46ACE8C009ACE8C009ACE899
:100F0000C009ACE8C0098D46704770B50446051F9E
:100F100000F0DEF90068002C14BF446870BD002C9E
:100F200018BFAC423CBF20466468F8D301680A1879
:100F3000AA4218BF456003D12A68054611440160E2
:100F400028684119A1421CBF6C6070BD616869606E
:100F500021680844286070BD2DE9F04705460C461D
:100F6000C86820F4201040F48000C860800602D5D4
:100F7000084600F0FAFAE06841F282014FF0FF39CA
:100F80000140022903D0204600F098FAB5E000F4B1
:100F90002041B1F5004F0FD1C00306D56168E06A6A
:100FA000884200D80846606006E02069E062606020
:100FB0006069FFF77AFFA061A0680022EEB2002806
:100FC0000DDAE1688B050AD4C043A06041F490308B
:100FD0002260E0606068411C61600670A5E0E06826
:100FE0009046226040F40050E060206968BB606970
:100FF000FFF74DFF012704F12405A0B1A08910F4EB
:10100000407F08D0E06900F0AEF9206118B1E068D7
:1010100040F4006016E0E7612561E06820F440706C
:1010200040F480600EE0E06900F09DF90028206146
:10103000F1D0E06840F4006010F4407FE06002D13D
:1010400040F48070E06020696060E06825696FF0BE
:10105000010AC1051FD56168E06A884200D80846C8
:10106000411B04D02246284600F032FAF0BBE0686B
:10107000010203D5E562C4E9015854E0691CE1624C
:101080006160E16940F48030491EC4E902103046D5
:101090002E70BDE8F087010202D500F480320AE02C
:1010A0006068411C61600670E0680A2E40F4803080
:1010B000E06006D00022E16A6068814203D90B46F5
:1010C00002E00122F7E70346A7895B1B7F0503D4F3
:1010D000E7699F4200DDE2B1814200D80146E56246
:1010E0000F1AC4E90158002B09DD00E005E0224693
:1010F0001946284600F0ECF908B14846C9E747B15F
:10110000A069E5626560C01BA061E06840F0100066
:10111000E060E068000208D56168A069E562491BEB
:1011200008446560A0615046B3E73046B1E770B54A
:10113000C468A50713D0650211D4B2F5807F09D029
:10114000B2F5007F06D0B2F5806F08D1012300F11F
:10115000240106E05D1E6FF07F46B54201D30120F9
:1011600070BD0161C361416024F470611143C160CD
:10117000002070BD2DE9F0410C460746164610468A
:1011800000F06EF82078611C61280AD0722802D025
:1011900077283CD102E00125002405E00225042443
:1011A00002E0082448F2020511F8010B2B2806D0B2
:1011B000622809D011F8010C74280AD00BE045F020
:1011C000030544F00204EFE745F0040544F0010490
:1011D000EAE744F0100438462146FFF739FE411C87
:1011E00015D00021316171604FF40071F560F1613B
:1011F0007061200704D530460222002100F0E2F899
:10120000306D40F0010030653046BDE8F0810020CF
:10121000FBE72DE9F0410D460646104C206DC10755
:1012200004D0410804D020F00104F7E722460EE084
:10123000542000F098F807000ED0206D47F001010F
:101240000843542120653846FFF74CF93A462946B1
:101250003046BDE8F0418DE70020D6E7540100207C
:101260002DE9F04704464FF000094FF0FF37C568FD
:10127000D4E90486A80707D0204600F053F9304689
:10128000FFF7F0FD002802DA3846BDE8F0872805B0
:1012900002D54046FFF739FE4C212046FFF722F9E0
:1012A000206D20F0010020654846EEE710B50446A9
:1012B000AFF300802046BDE81040FEF79EBF10B59A
:1012C00000F07AF9BDE8104000F070B970470000F6
:1012D00000487047580200207047704770477047B9
:1012E00038B504460A4600206946AFF3008000285E
:1012F00008BF38BD02460099204600F0A4F901203D
:1013000038BD012000F0F3B9F8B5AFF30080054611
:1013100000200C46102000BF0646A819A0420DD997
:10132000324669460020AFF30080070008BF00F096
:10133000DEF90098A04218BF0546C419FFF7C8FFA0
:1013400005600746F01D20F007004619284600F00A
:1013500073F9B44208BFF8BDA21B31463868BDE836
:10136000F84000F070B970B50646FFF7B1FF0568A8
:1013700006F10B0020F00704B4429CBF002070BDB2
:101380002B466A68BAB11068A04210D304F1080174
:1013900088423CBF5068586007D3516810194160BB
:1013A0001168091B016058601460101D70BD134660
:1013B0005268002AE7D121462846FFF791FF00280E
:1013C000DED170BD2DE9F041044616460D46476951
:1013D000007B80072ED03846FFF759FD50BB3EB347
:1013E000012E02D0022E25D104E0204600F045F95E
:1013F00005441DE03846FFF758FDE168002841F03C
:101400001001E16005DA204600F058F80120BDE83F
:10141000F081C9030BD56268E16A914200D8114698
:10142000A26911442269891A814200DD08460544F7
:10143000002D01DA0220EAE7E16A6068E268814291
:1014400006D29103E06203D522F4003141F010028C
:10145000A6690027AE4213DCE16A814201D90B463E
:1014600000E0034603EB060C2369ACEB030CAC4530
:1014700006DD814201D98C4600E084469C4505D1B9
:10148000A760276042F02000A5620DE0AD1BE66971
:10149000AE1B8142A66000D90846C01A281A2060F7
:1014A0005819606022F0200003490840E0600020E5
:1014B00084F84870ABE70000BFCFD7FFC16821F4C4
:1014C000001141F08001C16000218160016070471E
:1014D0002DE9F047814614460E464FF0FF3832485A
:1014E000D5685769054209D03846A169FFF7D5FC90
:1014F000002811DB2C48C0430540E5602B463246EE
:1015000049463846FFF7B4FCA16920F00042B21A00
:1015100011440028A16103D02046FFF7CFFF4046C9
:10152000BDE8F08770B504460569C06A6168884205
:1015300000D80846E16821F42011E160C90312D502
:10154000A84208D02246411B2846FFF7C1FF10B130
:101550004FF0FF3070BD0020E562C4E90150E06843
:1015600020F48030E060002070BD10B50446C068F3
:1015700020F02000E060A16AA06988420DD02046DA
:10158000FFF7D0FFE06820F4405040F01000E0602A
:10159000A06AA0612069E062606044F24001E068F6
:1015A0008843E06010BD000010000200002801D058
:1015B00000F03CB87047000010B5014602A000F0F2
:1015C0007DF8012010BD0000534947525452454454
:1015D0003A2052656469726563743A2063616E27CC
:1015E00074206F70656E3A200000000010B5431C37
:1015F00002E010F8011B71B18107FAD14FF00132FE
:1016000002C88C1A8C4314EAC211F9D0C01A0A0617
:1016100003D0C01E10BDC01A10BD0A0401D0801E28
:1016200010BD0902FCD0401E10BD00000149182069
:10163000ABBEFEE72600020000210160C0E90110F8
:10164000704710207047034640688C46002818BF3A
:1016500088423CBF03464068F8D318681844884263
:1016600007D00CF1030020F00700001D411A521AA8
:101670000146081D0A60FFF748BC10B50146C26864
:10168000900703D0900607D5886A0AE000F03EF87C
:1016900001210160881E10BD8B69486818440B69E0
:1016A000C01A91F848301BB191F84910401A10BD8A
:1016B0001103FCD50028FADD401E10BD70B50546AB
:1016C0000C460A2000E06D1C00F018F835B12878AF
:1016D0000028F8D102E0641C00F010F814B1207862
:1016E0000028F8D1BDE870400A2000F007B810B516
:1016F00000F010F8BDE81040FFF758BF08B5694684
:101700008DF800000320ABBE08BD00000048704704
:101710005002002010B5012805D0002103A0FFF7DA
:10172000CDFF012010BD09A1F8E700005349475241
:10173000544D454D3A204F7574206F6620686561A1
:1017400070206D656D6F7279000000003A20486569
:101750006170206D656D6F727920636F7272757044
:10176000746564005FEA400C08BF91F0000F4FEA17
:101770008C234FEAC12243EA51514FEA1C5018BF53
:1017800000F5F0404FEA300018BF41F000415FEA39
:101790006C5C00F02980BCF1FF3F08BF40F0804046
:1017A0007047130C06BF12044FF0100C4FF0000CE2
:1017B000130E04BF12020CF1080C130F04BF120128
:1017C0000CF1040C930F04BF92000CF1020CD30F28
:1017D00004BF52000CF1010C11464FF00002A0F1C1
:1017E0001F00A0EB0C00704711F0004F08BF7047BE
:1017F00031F000413FF4D5AF0B0C06BF09044FF0A8
:10180000100C4FF0000C0B0E04BF09020CF1080C79
:101810000B0F04BF09010CF1040C8B0F04BF8900EE
:101820000CF1020CCB0F04BF49000CF1010CCCF100
:101830002003A0EB0C0022FA03F302FA0CF241EAB7
:10184000030100F10100704720F07F4C80EA0300A3
:1018500023F07F47ACEB070303F57C5300F0004017
:1018600003F1FF032DE980494FEA154B09B44FEA14
:10187000144325EA0B4E24EA03480FF2042606EB34
:10188000132749083E785FEA320203FB0667C7F573
:10189000000707FB06F64FEA54374FEAD64606F133
:1018A000020607FB066CCCF1005C4FEA1C472CEAF1
:1018B000074C07FB06F40CFB06F504EB15464FEA54
:1018C000961634BF00204FF000404FEAD13706FB98
:1018D00007FC4FEA1C4C0CFB0BF7D21B03FB0CF76D
:1018E00061EB07010CFB0EF7B0EB074072EB174200
:1018F0000CFB08F734BFA2EB0742B2EB074261EBE7
:1019000017414FEA0C444FEA910706FB07FC4FEAE8
:101910001C4C0CFB0BF7B0EBC74072EB573203FBD0
:101920000CF734BFA2EBC742B2EBC74261EB5731B1
:101930000CFB0EF7B0EBC70072EB57720CFB08F70D
:1019400034BFA2EBC702B2EBC70261EB5771039F32
:101950004FEA816141EA921104EBCC044FEAD1379E
:101960004FEA826206FB07FC42EA90124FEA80606F
:101970004FEA1C4C0CFB0BF7D21B03FB0CF761EB83
:1019800007010CFB0EF7B0EB074072EB17420CFBA4
:1019900008F734BFA2EB0742B2EB074261EB1741F5
:1019A0004FEA8C554FEA910704EB9C2406FB07FC99
:1019B0004FEA1C4C0CFB0BF7B0EBC74072EB5732F5
:1019C00003FB0CF734BFA2EBC742B2EBC74261EB9B
:1019D00057310CFB0EF7B0EBC70072EB57720CFBE4
:1019E00008F734BFA2EBC702B2EBC70261EB577135
:1019F00015EB4C254FEA816141EA92114FEA826270
:101A00004FEAD13742EA901206FB07FC44F100048A
:101A10004FEA80604FEA1C4C0CFB0BF7D21B03FB18
:101A20000CF761EB07010CFB0EF7B0EB074072EB14
:101A300017420CFB08F734BFA2EB0742B2EB074298
:101A400061EB174115EB1C154FEA813141EA9241D8
:101A50004FEA823242EA90424FEA80304FEA0C76F7
:101A600044F1000448EA03434EEA0B484FF0000EED
:101A7000B2EB080C71EB030724BF624639464EEB0C
:101A80000E0E4FF0000B0018524149414BEB0B0B6F
:101A9000B2EB080C71EB03077BF1000B24BF62462D
:101AA00039464EEB0E0E4FF0000B001852414941E3
:101AB0004BEB0B0BB2EB080C71EB03077BF1000B4C
:101AC00024BF624639464EEB0E0E51EA020718BF9C
:101AD00046F0010616EB0E7655F1000254F10001B6
:101AE00003D5BDE88901BDE80088BDE88901BDE8EE
:101AF0000048B619524141EB0101A3F101037047BF
:101B000080807F7E7D7C7B7A79787776767574733A
:101B1000727171706F6E6E6D6C6C6B6A6A696868F9
:101B2000676666656464636362616160605F5F5E8F
:101B30005E5D5D5C5C5B5B5A5A5959585857575605
:101B4000565555555454535352525251515050506A
:101B50004F4F4F4E4E4D4D4D4C4C4C4B4B4B4A4ABC
:101B60004A49494948484847474747464646454500
:101B70004544444444434343434242424241414139
:101B8000002B9C4630D477002BD01CB54FEA37078A
:101B900003B44FF010004FF01001BAF1000F06D05F
:101BA000BCF1000FDCBF40F0080040F008014FF02E
:101BB00000000FBCBDE810400BF1010BBBF1010FA1
:101BC00008BF5FEA170722BF12F1010211F10101FC
:101BD0004FF0004143F1000300F0004043EA0000F1
:101BE0007047F9D35708D0E746EA064613F1400F8D
:101BF0004FEA16461FDD13F1200FDFBF16430A46DA
:101C0000002120335B42BED0C3F1200746EA0646DE
:101C100002FA07F74FEA164646EA0706C3F120071D
:101C200022FA03F201FA07F721FA03F14FF0000359
:101C300042EA0702A7E746EA020646EA06464FEAF4
:101C4000164646EA0106BCBF46EA0646360C4FF089
:101C500000034FF000024FF0000194E72DE9804CA3
:101C60009A46934670B491E8380007C831EA400CB0
:101C700048BF34EA430C03D5FFF7E6FDFFF780FFCA
:101C8000F0BCBDE8008C2DE9804C9A46934670B4B8
:101C900091E8380007C810F0804F08BF13F0804F5C
:101CA00003D100F005F8FFF76BFFF0BCBDE8008C36
:101CB00020F07F4780EA030023F07F4C07EB0C0302
:101CC000A3F57C5300F00040A3F1FE0392F0000F57
:101CD00000F0B38095F0000F00F077802DE9014906
:101CE0004FEA11404FEA144621EA004800FB06FC87
:101CF00024EA064708FB06F607FB08F800FB07F78F
:101D000018EB06484CEB164C4FEA124B18EB074801
:101D10004FEA15464CEB174022EA0B4E0BFB06FC34
:101D200025EA06470EFB06F607FB0EFE0BFB07F740
:101D30001EEB064E4CEB164C4FF000061EEB074E0A
:101D40004CEB174B18EB0B0840F1000018EB0E0B97
:101D500058EB000840F100008F1A4FF000013CBF23
:101D6000C943661B14BFB5EB040C00213CBFC9433B
:101D7000F61B4FEA17444EEA8E0E27EA04454FEA57
:101D80001C4704FB07622CEA074C05FB07F70CFB1A
:101D900005F604FB0CFC16EB074642EB174216EB6C
:101DA0000C4642EB1C421BEB060658EB020241417B
:101DB00046EA9E0601D5BDE80189B619524141EBBC
:101DC0000101A3F10103BDE801894FEA14454FEA7F
:101DD000114724EA054621EA074C05FB07F406FBF8
:101DE00007F70CFB06F105FB0CFC11EB074144EB7C
:101DF00017444FEA124711EB0C4144EB1C4422EA12
:101E0000074C05FB07F206FB07F70CFB06F605FB84
:101E10000CFC16EB074642EB174216EB0C4642EB66
:101E20001C456A1854F1000148BF7047B619524169
:101E300041EB0101A3F10103704795F0000F37D08A
:101E40004FEA11424FEA144721EA024624EA074CBE
:101E500002FB07F106FB07F70CFB06F402FB0CFC88
:101E600014EB074441EB17414FEA154714EB0C44C0
:101E700041EB1C4125EA074C02FB07F506FB07F77F
:101E80000CFB06F602FB0CFC16EB074645EB174570
:101E900016EB0C4645EB1C42121951F1000148BFEC
:101EA0007047B619524141EB0101A3F1010370479C
:101EB0004FEA14454FEA114724EA054621EA074C48
:101EC00005FB07F106FB07F70CFB06F24FF00006D7
:101ED00005FB0CFC12EB074241EB174112EB0C42E5
:101EE00051EB1C4148BF7047921841EB0101A3F12F
:101EF00001037047FEE70000014800F0DDB8000074
:101F000000010020014800F0D7B80000BC0000200C
:101F100030B590F840500124AC40C56B6C6004684B
:101F200063604368102B036803D099600068C26047
:101F300030BD9A600068C16030BD704772B6FEE780
:101F400010B590F821100022022905D004218163E8
:101F500080F82020012010BD01680B6823F00E03DB
:101F60000B6001680B6823F001030B6090F84030B0
:101F7000C46B012101FA03F3636080F8211080F83B
:101F80002020104610BD00002DE9F05F90F82110D0
:101F90000024022903D004218163012485E0016823
:101FA0000A6822F00E020A6001680A6822F0010243
:101FB0000A603F4E3E4FB215DFF8F4C0DFF8F090F4
:101FC000DFF8ECA0DFF8E8B0DFF8E4E00168783F84
:101FD00013011502ACF1640CA9F15009AAF13C0AF5
:101FE000ABF1280BAEF1140E4FF48018B14227D993
:101FF000B9420ED0614512D049451DD0514518D087
:10200000594518D0714501D1424615E0294EB142DB
:1020100001D1012210E0274E1436B14201D1102225
:102020000AE0244E2836B14206D0224A3C32914280
:1020300001D11A4600E02A461E49091F0A602BE01A
:10204000B94213D0614517D0494522D051451DD022
:1020500059451DD0714501D142461AE0B14202D125
:102060004FF0807215E0134EB14201D1012210E011
:10207000104E1436B14201D110220AE00D4E28361E
:10208000B14206D00B4A3C32914201D11A4600E0DF
:102090002A46074980394A60012180F82110002131
:1020A00080F82010416B01B188472046BDE8F09FC1
:1020B00080000240080402402DE9F05FC16B0A680D
:1020C00001680B68046C4FF0040808FA04F8844DAA
:1020D000844E854FDFF814C2DFF81492DFF814A2A3
:1020E000DFF814B2DFF814E218EA020F65D05FEAF5
:1020F000437862D50A68920603D40A6822F0040283
:102100000A60DFF8F0814FF48062016808F114087A
:1021100013011402414524D9A9420DD0B1420FD078
:10212000B9421AD0614515D0494515D0514501D164
:10213000120312E0594501D104220EE0714501D18C
:1021400040220AE06D4D1435A94206D06B4A283270
:10215000914201D11A4600E022466749091F0A60F0
:1021600029E0A94213D0B14215D0B94220D061452F
:102170001BD049451BD0514502D14FF4800217E0D6
:10218000414502D14FF0806212E0594501D104224D
:102190000EE0714501D140220AE0584D1435A942A4
:1021A00006D0564A2832914201D11A4600E0224612
:1021B0004B4908394A60C16A71E04FF0020808FAD9
:1021C00004F818EA020F70D05FEA83786DD50A68C8
:1021D000920606D40A6822F00A020A60012180F8F9
:1021E0002110DFF810814FF40072016808F1140823
:1021F00013011402414524D9A9420DD0B1420FD098
:10220000B9421AD0614515D0494515D0514501D183
:10221000120312E0594501D102220EE0714501D1AD
:1022200020220AE0354D1435A94206D0334A28321F
:10223000914201D11A4600E022462F49091F0A6047
:1022400029E0A94213D0B14215D0B94220D061454E
:102250001BD049451BD0514502D14FF4001217E065
:10226000414502D14FF0007212E0594501D10222DE
:102270000EE0714501D120220AE0204D1435A9421B
:1022800006D01E4A2832914201D11A4600E0224669
:10229000134908394A60002180F82010816A00291A
:1022A0001CD0BDE8F05F0847FFE70825A5401542B0
:1022B00014D01A0712D50A6822F00E020A6090F8AC
:1022C0004020C36B012101FA02F25A60816380F859
:1022D0002110002180F82010016BE0E7BDE8F09F9D
:1022E000080002401C00024030000240440002404E
:1022F000580002406C000240080402401C040240E6
:1023000030B560B11A4B026814219A4209D2194BB8
:102310001344B3FBF1F18900016417490AE001207D
:1023200030BD134B5B421344B3FBF1F189000164F0
:102330000F490839C163022180F82110136843F660
:10234000F0718B43F0E901142143D0E902452C439D
:10235000214304692143446921438469214319438A
:10236000116000214163012242770177084630BDA8
:1023700008040240F8FFFDBF0000024070B50446AB
:1023800090F82000002501280CD0012084F82000BE
:1023900094F821600020012E06D084F82000022548
:1023A000284670BD022070BD022684F82160A0631B
:1023B0002068066826F0010606602046FFF7A8FDA3
:1023C000E06A00282068016802D041F00E0106E0B2
:1023D00021F0040101602068016841F00A010160F8
:1023E0002068016841F001010160D9E780B201F085
:1023F000D5BB00002DE9F84FDFF8C891002409F1A2
:10240000040A0AF1040B23460F270BF1040ED1E056
:102410000125A54006EA0502AA4276D1DFF8A8C147
:102420004E68A6EB0C0866452BD00DDC032E34D08D
:1024300005DC36B3012E19D0022E2FD11BE0112E50
:1024400016D0122E2AD119E0B8F5881F19D006DC53
:10245000B8F5803F15D0B8F5801F1FD111E0B8F551
:10246000001F0ED0B8F5041F18D10AE0CB6815E0A4
:10247000CB681B1D12E0CB6808330FE0CB680C3330
:102480000CE08B682BB1012B4FF0080303D04561A2
:1024900004E0042302E0056100E00023FF2A01D8E4
:1024A000064601E000F104064FEA840501D9A5F1D2
:1024B0002005D6F8008007FA05FC28EA0C0803FA84
:1024C00005F548EA0508C6F800804D68ED0070D5AE
:1024D0003E4DAE6946F00106AE61AD6924F00306DB
:1024E00005F0010500953A4D06EB050CDCF80850A7
:1024F000A607360F07FA06F825EA0805DFF8D480A4
:10250000404503D14FF0000825E052E0DFF8C880D5
:10251000404502D14FF001081DE0DFF8C080404582
:1025200002D14FF0020816E0DFF8B480404502D136
:102530004FF003080FE0DFF8AC80404502D14FF0C8
:10254000040808E0DFF8A080404502D14FF00508FC
:1025500001E04FF0060808FA06F848EA0508CCF84A
:1025600008804D68D9F80060ED034D4601D516434B
:1025700000E096432E604D68DAF80060AD035546E2
:1025800001D5164300E096432E604D68DBF80060ED
:10259000ED025D4601D5164300E096432E604D687E
:1025A000DEF80060AD02754601D5164300E09643A3
:1025B0002E60641C0A681646E2407FF429AFBDE82D
:1025C000F88F0000000401400000111000100240CC
:1025D0000000014000080140000C014000100140D3
:1025E0000014014000180140001C014080680840B0
:1025F00000D001207047C26821EA02030A4043EA82
:102600000241016170470AB1016170470904FBE7AB
:102610000148806870470000080000200248816877
:10262000027811448160704708000020074810B507
:10263000016841F010010160032000F075F80F20DF
:1026400000F006F800F024F8002010BD0020024041
:1026500070B50D4D04464FF47A712878B1FBF0F057
:102660000A490968B1FBF0F000F0ECFA48B9102C07
:1026700007D200222146501E00F036F800206C6080
:1026800070BD012070BD0000080000201400002073
:102690000C4808B5816941F001018161816901F04F
:1026A00001010091C16941F08051C161C06900F030
:1026B000805000900448416821F0E06141F00071D1
:1026C000416008BD0010024000000140002809DB05
:1026D00000F01F02012191404009800000F1E0203C
:1026E000C0F8001170470000F0B40E4B1B680C4698
:1026F000C3F30223C3F10705042D00D90425191DD6
:10270000072901D2002300E0DB1E012606FA05F1AD
:10271000491E214099409E40761E16403143F0BC30
:1027200000F0F7BF0CED00E0064900F00702086872
:102730004FF6FF03184040EA0220034A10430860A6
:10274000704700000CED00E00000FA052DE9F047AD
:102750000F46050061D0434E306800F00700B842D4
:1027600009D2306820F0070038433060306800F04C
:102770000700B84251D128683B4C810712D5400769
:1027800003D5606840F4E06060602878000703D5F6
:10279000606840F4605060606068A96820F0F000F4
:1027A000084360602878C00728D06868012810D0E6
:1027B0002168022810D0890700292EDA616821F0EB
:1027C000030101436160FFF723FF804641F288392E
:1027D0000DE021688903EFE78901EDE7FFF718FFB6
:1027E000A0EB0801494502D90320BDE8F0876068E5
:1027F000696800F00C00B0EB810FEFD1306800F099
:102800000700B8420BD9306820F007003843306029
:10281000306800F00700B84201D00120E5E72878D1
:10282000400705D56068E96820F4E060084360600F
:102830002878000706D56068296920F4605040EACE
:10284000C100606000F038F86168084AC1F3031104
:10285000515CC8400649086006480068FFF7F8FE6A
:102860000020C2E70020024000100240C29700088A
:10287000140000200C000020044805490068496845
:10288000044AC1F30221515CC84070471400002083
:1028900000100240D29700080448054900684968C2
:1028A000044AC1F3C221515CC840704714000020A3
:1028B00000100240D297000812A185B00FC98DE820
:1028C0000F0014A0144A006804905168134801F0E6
:1028D0000C03042B10D0082B0ED1C1F38343C90382
:1028E0001DF803000AD5516804AAC1F34041515CA8
:1028F0000A4A5043B0FBF1F005B07047084948431D
:10290000FAE7000002030405060708090A0B0C0D8C
:102910000E0F1010010200000010024000127A0099
:1029200000093D002DE9F84F040070D02078C04D1B
:10293000C00749D06868C0F38100012807D06868E3
:10294000C0F38100022809D16868C00306D5286851
:10295000800339D560680028E7D035E06068B0F5BD
:10296000803F0BD010B1B0F5A02F11D0286820F413
:1029700080302860286820F4802002E0286840F435
:1029800080302860606890B1FFF742FE06460AE09A
:10299000286840F480202860F0E700BFFFF738FE89
:1029A000801B642873D828688003F7D50CE0FFF7F4
:1029B0002FFE064605E000BFFFF72AFE801B6428B5
:1029C000F0D828688003F7D420789A4E80074FF01B
:1029D00001094FF0000839D5686810F00C0F07D0D6
:1029E0006868C0F38100022809D16868C00306D472
:1029F0002868800714D52069012808D110E02069D3
:102A0000B0B1C6F80090FFF703FE074605E00AE103
:102A1000FFF7FEFDC01B0228C4D828688007F7D541
:102A20002868616920F0F80040EAC10028600DE0E4
:102A3000C6F80080FFF7ECFD074604E0FFF7E8FD6D
:102A4000C01B022823D828688007F7D42078000705
:102A50002CD57948A169D9B1C0F80090FFF7D8FD0D
:102A6000074604E0FFF7D4FDC01B02280FD8686AB0
:102A70008007F7D571484FF4FA510068B0FBF1F0C8
:102A8000009000BF0098411E0091FAD20EE080E055
:102A9000C0F80080FFF7BCFD074604E0FFF7B8FD73
:102AA000C01B022875D8686A8007F7D420784007D1
:102AB00060D5E8690027C00008D4E86940F080507C
:102AC000E861E869012700F0805000905C480168E7
:102AD000C90513D40168834641F480710160FFF792
:102AE00097FD824606E000BFFFF792FDA0EB0A00CB
:102AF00064284ED8DBF80000C005F5D5E068012851
:102B00000AD008B1052813D0286A20F001002862F5
:102B1000286A20F0040002E0286A40F001002862E0
:102B2000E06841F2883B98B1FFF772FD82460BE006
:102B3000286A40F004002862EEE700BFFFF768FD56
:102B4000A0EB0A0159455AD8286A8007F6D50CE04F
:102B5000FFF75EFD824605E0FFF75AFDA0EB0A0194
:102B600059454CD8286A8007F6D41FB1E86920F08F
:102B70008050E861E06988B36968C1F38101022986
:102B800044D00228C6F8608004D0FFF741FD044617
:102B900038E034E0FFF73CFD074604E0FFF738FD7E
:102BA000C01B02282BD828688001F7D4206AB0F512
:102BB000803F05D16868A16820F400300843686050
:102BC000D4E908010843696821F474110843686076
:102BD000C6F86090FFF71CFD044606E025E000BF44
:102BE000FFF716FD001B022809D828688001F7D5D9
:102BF0001BE000BFFFF70CFD001B022802D90320D9
:102C0000BDE8F88F28688001F4D40EE00128F7D0E1
:102C10006868226A00F48031914204D1616A00F44C
:102C20007010884201D00120EAE70020E8E70000A8
:102C30000010024000004242800442421400002082
:102C40000070004010B5401EB0F1807F01D301201C
:102C500010BD4FF0E02460610F21601700F059FDB6
:102C60000020A06107202061002010BD704710B532
:102C700004460068416994F83D20C1F3C011212A3F
:102C80000BD151B1416921F080014161606B08B104
:102C9000FFF756F9204600F008FC2068416994F8D7
:102CA0003E20C1F38011222A0BD151B1416921F09C
:102CB00040014161A06B08B1FFF742F9204600F0E6
:102CC000DCFB002010BD7047F8B5026804461068B0
:102CD000D168536910F00F0F4FF0000553D003F087
:102CE000010601F4907737435FD0C20705D0CA05CB
:102CF00003D5226C42F001022264420705D5DA07AF
:102D000003D0226C42F002022264820705D5DA0762
:102D100003D0226C42F004022264020707D501F0BE
:102D20002002324303D0226C42F008022264226C5B
:102D3000002A34D0800604D5880602D5204600F04B
:102D4000BDFB20684069216CC0F38010090700D4E6
:102D500030B3204600F091FB2068416949061BD53D
:102D6000416921F040014161A06BA8B1584941631C
:102D7000A06BFFF709F9002811D0A06B416B01B0DF
:102D8000BDE8F040084783060FD58B060DD52046D9
:102D9000BDE8F84000F092BB2046FFF794FFF8BD75
:102DA0002046FFF790FF2564F8BD266B2023012EF7
:102DB00052D1C60650D5CE064ED510685068009048
:102DC000506940062AD5A16B086840680004000CD1
:102DD000EAD0A68D8642E7D9E0858869202818D0F8
:102DE000D06820F48070D0602068416921F0010132
:102DF00041612068416921F04001416184F83E3021
:102E000025632068C16821F01001C160A06BFFF745
:102E100097F8A08DE18D401A81B219E0A08DE18D67
:102E2000401A81B2E08D0028BED00029BCD0D06805
:102E300020F49070D0602068426922F00102426163
:102E400084F83E3025632068C26822F01002C26018
:102E50002046FFF70BFFF8BD05062BD50D0629D53B
:102E600094F83D002128F6D1A068B0F5805F01D12B
:102E70002069B0B1206A411C216221680078486055
:102E8000E08C401E0004000CE084E4D12068C1689E
:102E900021F08001C1602068C16841F04001C1603B
:102EA000F8BD206A0088C0F308005060206A801CCA
:102EB0002062E5E74006F3D54806F1D5D168204603
:102EC00021F04001D16084F83D3000F0FBF8F8BDFE
:102ED0007533000870B5040004D094F83D00002557
:102EE00010B106E0012070BD84F83C50204600F08F
:102EF00023F8242084F83D002068C16821F40051A3
:102F0000C160204600F036FB2068016921F4904141
:102F100001612068416921F02A0141612068C1688E
:102F200041F40051C1602564202084F83D0084F8FC
:102F30003E00002070BD0000F0B585B000240646BC
:102F4000009401940294039400682D49884254D15E
:102F50002C48816941F480418161816901F480419B
:102F60000491816941F0040181618069264D00F07E
:102F7000040004904FF400700090022001900320A0
:102F8000039069462846FFF735FA2815CDE9000475
:102F9000694628460294FFF72DFA1D4D1B488027ED
:102FA000C5E90004C5E902472C616C61AC612846A3
:102FB000EC61FFF7A5F908B1FEF7C0FFB5636E62DB
:102FC000134D12484435143801C5102091C51048DE
:102FD00045F8104944306C61AC61EC61FFF790F941
:102FE00008B1FEF7ABFF75630022012125206E6258
:102FF000FFF77AFB2520FFF769FB05B0F0BD000065
:103000000038014000100240000801405800024012
:10301000BC00002090F83E30202B0ED159B152B1A7
:1030200090F83C30012B08D0012380F83C3000237D
:10303000036300F0FBBA012070470220704770471D
:103040007047000070B5044690F83D00202830D14C
:1030500069B362B394F83C0001282AD0012084F8B7
:103060003C002162A284E28400252564212084F8AA
:103070003D00636B10489862636B1048D862636BC5
:103080000F481863606B134645632668606B321DFA
:10309000FFF774F921686FF04000086084F83C5035
:1030A0002068416941F080014161002070BD01202C
:1030B00070BD022070BD0000433400087134000868
:1030C0008533000870477047FEE700000D4808B5DB
:1030D000416941F0010141614069002200F00100B5
:1030E000009011460E20FFF7FFFA0E20FFF7EEFAD0
:1030F000002211460F20FFF7F7FABDE808400F2025
:10310000FFF7E4BA001002402DE9F04F85B000252A
:103110004D480095019502950395816941F0100194
:103120008161816901F010010491816941F0200100
:103130008161816901F020010491816941F00401FC
:103140008161816901F004010491816941F0080104
:1031500081618069002200F0080004904FF6FF7141
:103160003A48FFF750FADFF8E8A04FF4F869002278
:1031700049465046FFF747FADFF8D8B04FF480775A
:10318000002239465846FFF73EFA00220421324811
:10319000FFF739FA43F61F000326CDE9000669461A
:1031A0005046FFF727F941F6FF00CDE900066946D2
:1031B0005846FFF71FF92020CDE900056946504623
:1031C0000295FFF717F9012401AA4FF002080094B5
:1031D00082E8300169461D48FFF70CF94FF6FE60A2
:1031E000CDE90004CDE9024669461848FFF702F927
:1031F000CDE90094CDE9024669465046FFF7FAF85A
:10320000CDE900740294694658460394FFF7F2F83A
:10321000E003CDE90005694658460295FFF7EAF854
:103220000420CDE90004029469460B480394FFF79B
:10323000E1F8CDE90074CDE9028669460348FFF75D
:10324000D9F805B0BDE8F08F00100240000C014035
:103250000010014000080140001401400C4810B566
:103260000A4901604FF4E1314160002181600C2284
:10327000C160C0E904128161C161FFF72BFE002823
:1032800003D0BDE81040FEF759BE10BD0038014024
:1032900078000020FEE7FEE7704770472DE9F04711
:1032A00004464FF00009FFF7B3F9174FDFF85C80D1
:1032B00005464FF4004631463846FFF797F938B9CE
:1032C0001420FFF793F831463846FFF78FF928B1FD
:1032D00020214046FFF78AF918B10AE00220BDE834
:1032E000F0871420FFF782F820214046FFF77EF98F
:1032F00040B1002CDFD0FFF78BF9401BA042DAD998
:103300004846ECE70320EAE70008014000100140CE
:10331000FFF784B930B58FB028216846FDF7E2F891
:1033200014210AA8FDF7DEF801210804CDE90010F8
:103330000024029402250491CDE907504FF4E010D7
:1033400009906846FFF7EEFA08B172B6FEE70F2063
:10335000CDE90A054FF48060CDE90C4002210AA8AE
:103360000E94FFF7F3F9002801D072B6FEE70FB014
:1033700030BD704710B5406A0021C185C184FFF798
:10338000A2FC10BD70B5446A2068406994F83D10F5
:10339000C0F3C0100025212904D118B1E5842046CE
:1033A00000F083F82068406994F83E10C0F3801064
:1033B000222904D118B1E585204600F05EF8206C82
:1033C00040F0100020642046FFF77DFC70BD10B572
:1033D0000146406A0968096889061BD40021C18535
:1033E0000168CA6822F48072CA6001684A6922F0E2
:1033F00001024A6101684A6922F040024A612021C3
:1034000080F83E10016B012904D10168CA6822F0DE
:103410001002CA60016B012902D0FFF710FE10BD37
:10342000818DFFF723FC10BD10B5406A016B0129A7
:1034300002D0FFF705FE10BD818D4908FFF716FC8D
:1034400010BD10B50146406A0968096889060CD4A8
:103450000021C18401684A6922F080024A61006843
:10346000C16841F04001C16010BDFFF72BFE10BDE7
:1034700010B5406AFFF727FE10BD0168CA6822F444
:103480009072CA6001684A6922F001024A61016BC8
:10349000012904D10168CA6822F01002CA60202103
:1034A00080F83E100021016370470168CA6822F06D
:1034B000C002CA60202180F83D10704708B590F81E
:1034C0003E10222901D0022008BD82684FF48053AB
:1034D0009A4201D1016921B1816A9A421BD04AB155
:1034E0000AE00268816A5268C2F308020A80816AAF
:1034F000891C08E0026972B10268526802F07F021A
:103500000A70816A491C8162C18D491E0904090C37
:10351000C18503D019E002685268F1E70168CA6802
:1035200022F02002CA600168CA6822F48072CA6070
:1035300001684A6922F001024A61202180F83E10A8
:10354000016B012903D0FFF77AFD002008BD00219F
:1035500001630168CA6822F01002CA6001680A6843
:10356000D20602D50A6849680091818DFFF77EFB7B
:10357000EBE7000070B5044600680169E26821F4D9
:103580004051114301612169A06808436169084302
:103590002168CA6841F20C639A430243CA602068FA
:1035A0004169A26921F44071114341611E492068BB
:1035B000884202D1FFF770F901E0FFF75DF900EBF7
:1035C000C00101EB0012606864218000B2FBF0F3DF
:1035D000B3FBF1F36FF018067343B2FBF0F5B2FBE7
:1035E000F0F605EB8305322303EB0515B5FBF1F58A
:1035F000B6FBF1F605F0F00505EB0615B2FBF0F6AB
:10360000B2FBF0F0B0FBF1F06FF01802504306EBA4
:10361000800003EB0010B0FBF1F0216800F00F0018
:103620002844886070BD00000038014038B58162D0
:1036300082850025134604460564222084F83E0056
:10364000A26B13489062A26B1248D062A26B124820
:103650001063A06B0A4645632168A06B091DFEF745
:103660008DFE206801684168009184F83C50C16873
:1036700041F48071C1602068416941F001014161FC
:103680002068416941F040014161002038BD0000DF
:10369000CF330008293400088533000838B5104CB2
:1036A00020680168C943C90614D4016840680090C5
:1036B0002046FFF7DCFAA06B006840680949C0F1BA
:1036C0000800C2B22046FFF7BDFC0822054920468B
:1036D000FFF7A0FCBDE838400148FFF7F5BA00004D
:1036E0007800002000000020FEE7490050EAC120D9
:1036F00018BF04204A0D18BF40F0010040F2FF72CD
:10370000B2EB515F08BF40F00200012808BF05205E
:1037100070470907090E002804DB00F1E02080F85B
:103720000014704700F00F0000F1E02080F8141D35
:10373000704730380A2801D20120704700207047B6
:1037400000F0F0BD70B514460D46064606E0304662
:10375000711C8EB200F006F805F8010B641EA4B2CD
:10376000F5D270BD10B5044600F084FE200AA021F9
:1037700001EB4000C0B200F051FE00F0BDFEE0B22F
:1037800000F04CFE00F0B8FE00F074FEA12000F046
:1037900045FE00F0B1FE002000F012FE044600F0ED
:1037A0008DFE204610BD70B516460C46054606E057
:1037B0002178284600F007F86D1CADB2641C761E17
:1037C000B6B2F5D270BD70B50D46044600F052FE9B
:1037D000200AA02101EB4000C0B200F01FFE00F063
:1037E0008BFEE0B200F01AFE00F086FE284600F0E4
:1037F00015FE00F081FE00F061FEBDE870400A2079
:1038000000F0CCB970B5134D4FF40064002221468E
:103810002846FEF7F8FE022000F0DEF9012216032A
:1038200031462846FEF7EFFE022000F0D5F90022CF
:1038300031462846FEF7E7FE022000F0CDF90122CE
:1038400021462846FEF7DFFEBDE87040022000F06A
:10385000C3B9000000100140154810B5816986B059
:1038600041F008018161816901F0080104918169D9
:1038700041F08001816180690E4C00F0800004906D
:103880004FF480500090012001900290032003909B
:1038900069462046FEF7AEFDE0140090112001902D
:1038A00069462046FEF7A6FD00F0B0F806B010BD50
:1038B000001002400010014070B50E4C0122D102F0
:1038C0002046FEF7A0FE022000F086F90122150333
:1038D00029462046FEF797FE022000F07DF90022DF
:1038E00029462046FEF78FFEBDE87040022000F01A
:1038F00073B90000001001402DE9F0470024174E75
:10390000804625464FF400694FF480576006040E48
:10391000012239463046FEF776FE022000F05CF9BF
:1039200049463046FEF762FE08B1641CE4B200224C
:1039300039463046FEF767FE022000F04DF96D1C57
:10394000EDB2082DE2D3B8F1000F04D0FFF75AFF13
:103950002046BDE8F087FFF7AFFFF9E70010014010
:103960002DE9F041154F002405464FF40068BE14C0
:10397000280601D5012200E0002241463846FEF724
:1039800042FE022000F028F9012231463846FEF7B7
:103990003AFE022000F020F9002231463846FEF7B8
:1039A00032FE6806641C050EE4B2082CE0D34146E2
:1039B0003846BDE8F0410122FEF725BE0010014067
:1039C00070B50122104DD40221462846FEF71BFE99
:1039D0000122160331462846FEF715FE022000F0AC
:1039E000FBF8002221462846FEF70DFE022000F0DB
:1039F000F3F8002231462846FEF705FEBDE8704088
:103A0000022000F0E9B800000010014070B50E4D32
:103A10004FF40064002221462846FEF7F4FD022000
:103A200000F0DAF8012211032846FEF7ECFD02202F
:103A300000F0D2F8012221462846FEF7E4FDBDE859
:103A40007040022000F0C8B8001001402DE9F0419C
:103A50000122174E0024D702254639463046FEF78C
:103A6000D2FD022000F0B8F84FF480580122414600
:103A70003046FEF7C8FD07E0641CE4B2FA2C03D917
:103A8000FFF7C4FF012508E0022000F0A5F8394641
:103A90003046FEF7ABFD0028EED10022414630460D
:103AA000FEF7B1FD022000F097F82846BDE8F0814E
:103AB00000100140DFF8D48000260527B8F8041074
:103AC0008EB0A1F58050183800D10A27304D0DF185
:103AD000080A4FF6FF7B696800208847002441E010
:103AE000A88E0121A140084238D005EB4409B8F85E
:103AF0000010B9F80C208A4232D2B9F82030B8F858
:103B0000020083422CD23AF824C05046DC4504D14E
:103B100000EB840120F824204B80DFF878C00221DC
:103B20003CF814C0CDE9001C0AEB84010C914988D3
:103B30003AF8240000F0A2FDB9F80C202AF824205D
:103B40000C99B9F820004880B8F8001018398A425A
:103B500006DD142804D204F065FB01E02AF824B045
:103B6000641CE4B2BC42BBD30520FEF73FFC761CCC
:103B7000F6B21420B6FBF0F100FB11600028AAD1C8
:103B80004FF480710448FEF736FDA4E7440100209D
:103B900020000020AE970008000801404FF47A7121
:103BA00070B5B0FBF1F2B0FBF1F501FB1204094E68
:103BB00003E0304600F010F86D1E002DF9D1002C06
:103BC00006D04FF47A706043BDE8704000F004B84E
:103BD00070BD000040420F000B49098848434FF078
:103BE000E021486100228A61086940F00100086113
:103BF0000869C30701D0C003FAD5086920F00100A5
:103C000008618A6170470000180000208A68002A55
:103C100001DCFDF7A1B9521E8A604A68C0B2531C8C
:103C20004B601070704700002DE9F0413C4886B0B1
:103C3000816941F080018161816901F08001059114
:103C4000816941F08001816180694FF40065012440
:103C5000CDE9015400F080000326CDE90460DFF8CF
:103C6000C48001A903944046FEF7C4FBA0020027CC
:103C7000CDE90107CDE9034601A94046FEF7BAFBAD
:103C8000FFF7EAFD002229464046FEF7BCFC14205F
:103C9000FFF784FF012229464046FEF7B4FC32209C
:103CA000FFF77CFF8DF8007001226946002000F0CC
:103CB00011F901226946A42000F00CF916208DF8B4
:103CC000000001226946802000F004F90C208DF8E4
:103CD000000001226946882000F0FCF802226946B3
:103CE000A12000F027F89DF80010302903D19DF89D
:103CF000010003280BD09DF80100012807D00228FD
:103D000005D001B918B1012006B0BDE8F081C0B2FC
:103D100000EB012104A0FCF797FA0020F4E7000073
:103D200000100240001C01404354502049443A25F1
:103D3000780D0A002DE9F04115460E460446FFF7BE
:103D40003FFE7020FFF70CFEFFF780FEE0B2FFF7AA
:103D500007FEFFF77BFEFFF733FE7120FFF700FE43
:103D6000FFF774FE00246F1E09E0BC4201D0012061
:103D700000E00020FFF7C0FD3055641CE4B2AC4207
:103D8000F3D3BDE8F041FFF741BE00002DE9FC5F31
:103D900000274C4E8DF804704FF00A0B3078DFF896
:103DA0002881401CC0B2B0FBFBF20BFB12013C4669
:103DB000B94630704FF6FF7A09B10A2866D201225F
:103DC00001A90220FFF7B6FF9DF8040001075DD0AE
:103DD00000F00F01062959D20AFA01F0C04340F45D
:103DE0004040A8F8340045460420FFF7D7FE4FF0C6
:103DF0000109A98E09FA04F001423AD0334804229D
:103E0000694630F81400FFF795FF95F844009DF8D7
:103E10000010C0079DF8010001F00F010ED000EB6B
:103E2000012105EB440001849DF802209DF8031058
:103E300002F00F0201EB0221818110E000EB012072
:103E400023490988091A05EB440081819DF8022065
:103E50009DF8031002F00F0201EB022101849DF88E
:103E600000000821B1EB101F03D005EB44000784CC
:103E70008781641CE4B2052CBBD3A8894FF00109EB
:103E800018B9288C08B98DF8047037709DF80400B3
:103E9000C0060ED1B8F83400010402D520F4004069
:103EA00005E0A8F80CA0A8F820A000F46040A8F84D
:103EB00034003078F02801D986F800B04846BDE8D3
:103EC000FC9F0000680000202000002060C7000860
:103ED000440100202DE9F04116460F460446002516
:103EE000FFF76EFD7020FFF73BFDFFF7AFFDE0B27F
:103EF000FFF736FDFFF7AAFD002408E0385DFFF765
:103F00002FFDFFF7A3FD050003D1641CE4B2B4420A
:103F1000F4D3FFF77BFD2846BDE8F0812DE9F0439F
:103F2000394887B0816941F080018161816901F080
:103F300080010691816941F08001816180690125DC
:103F400000F0800006904FF400680326CDE900855C
:103F5000DFF8B890CDE9025669464846FEF74AFABE
:103F6000AF0201AA0024009782E870006946484623
:103F7000FEF740FAFFF770FC002241464846FEF784
:103F800042FB0A20FFF70AFE012241464846FEF79F
:103F90003AFB0A20FFF702FECDE90074CDE90246A4
:103FA00069464846FEF726FA6420FFF7F7FD04222B
:103FB00004A948F2401000F037F88DF8144004A925
:103FC00013A0FCF741F915A104A8FCF7B3FA10B946
:103FD00014490A20087002208DF8100048F24005AC
:103FE000012204A9284600F04DF90A20FFF7D6FD6A
:103FF0008DF81040012204A9284600F043F907B0CB
:104000000020BDE8F083000000100240001C0140C9
:104010004354502049443A25730D0A003932373150
:1040200000000000690000202DE9F04115460E4611
:104030000446FFF7C5FC2820FFF792FCFFF706FDBA
:10404000200AFFF78DFCFFF701FDE0B2FFF788FCC7
:10405000FFF7FCFCFFF7B4FC2920FFF781FCFFF71A
:10406000F5FC00246F1E09E0BC4201D0012000E0F5
:104070000020FFF741FC3055641CE4B2AC42F3D39E
:10408000BDE8F041FFF7C2BC2DE9F14F82B0002539
:10409000784C8DF804504FF00A0A6078DFF8D88128
:1040A000401CC0B2B0FBFAF20AFB12012E4660704F
:1040B0004FF6FF7909B10A2877D248F24E1701224C
:1040C00002A93846FFF7B0FF9DF8080001060BD59E
:1040D000217800F00F00884206D88DF804500122A4
:1040E00001A9384600F0CEF89DF8080001075CD021
:1040F000227800F00F00904257D809FA00F1C94326
:10410000B8F8347041F44041A8F8341008EB42028A
:10411000B8F80C105181B8F82010D1838DF80450F4
:10412000DFF858B15CE0B8F834100122824046460E
:10413000114250D05249042231F810006946FFF76D
:1041400073FFBBF80410A1F5AA42103A04D096F808
:104150004410C90719D129E096F84400C00714D0CB
:104160009DF800009DF8011000EB01219DF804006E
:1041700006EB400001849DF802109DF8032001EB3E
:104180000221C1F54871818125E09DF800009DF86C
:10419000011000EB01219DF8040006EB4000818135
:1041A0009DF802109DF8032012E037E09DF8021000
:1041B0009DF80320BBF8000001EB0221411A9DF895
:1041C000040006EB400081819DF800109DF801205D
:1041D00001EB022101849DF80400401C8DF80400CD
:1041E0009DF80400217888429DD3B8F80C20BBF8D4
:1041F0000030012640469A4204D8028CBBF80210D7
:104200008A420AD99DF8081001F00F0101290CD942
:10421000C1898181418CA8F8201065709DF8080043
:1042200000F08F0080280DD01CE0217800EB4101C8
:104230004A898281C98B018480218DF80810A8F8F1
:104240003470EBE7B8F8341040460A0402D521F484
:10425000004105E0A0F80C90A0F8209001F4604126
:10426000A8F834106078F02801D984F801A030460D
:10427000BDE8FE8F690000202000002044010020DE
:104280006AC700082DE9F04116460F46044600258E
:10429000FFF796FB2820FFF763FBFFF7D7FB200A09
:1042A000FFF75EFBFFF7D2FBE0B2FFF759FBFFF72A
:1042B000CDFB002408E0385DFFF752FBFFF7C6FB9B
:1042C000050003D1641CE4B2B442F4D3FFF79EFBB3
:1042D0002846BDE8F081000010B5114C0022802175
:1042E0002046FEF790F90220FFF776FC01224021DC
:1042F0002046FEF788F90220FFF76EFC00224021DD
:104300002046FEF780F90220FFF766FC012280219B
:104310002046FEF778F9BDE810400220FFF75CBCAC
:10432000000C0140154810B5816986B041F00801C4
:104330008161816901F008010491816941F00801FE
:10434000816180690E4C00F00800049040200090CC
:104350000120019002900320039069462046FEF759
:1043600049F8802000901120019069462046FEF710
:1043700041F800F0A3F806B010BD000000100240A4
:10438000000C014010B50D4C012280212046FEF7A3
:104390003AF90220FFF720FC012240212046FEF7D7
:1043A00032F90220FFF718FC002240212046FEF7D8
:1043B0002AF9BDE810400220FFF70EBC000C0140B6
:1043C0002DE9F0410024144E074625466006040EF0
:1043D000012240213046FEF716F90220FFF7FCFBD0
:1043E00080213046FEF702F908B1641CE4B20022D5
:1043F00040213046FEF707F90220FFF7EDFB6D1C68
:10440000EDB2082DE2D327B1FFF766FF2046BDE8E5
:10441000F081FFF7B7FFF9E7000C014070B5144ECB
:1044200005460024280601D5012200E00022802153
:104430003046FEF7E8F80220FFF7CEFB01224021CC
:104440003046FEF7E0F80220FFF7C6FB00224021CD
:104450003046FEF7D8F86806641C050EE4B2082C56
:10446000E0D33046BDE8704001228021FEF7CBB892
:10447000000C014010B5104C012280212046FEF7AF
:10448000C2F8012240212046FEF7BDF80220FFF7C6
:10449000A3FB002280212046FEF7B5F80220FFF79B
:1044A0009BFB002240212046FEF7ADF8BDE81040FE
:1044B0000220FFF791BB0000000C014010B50D4C2D
:1044C000002280212046FEF79EF80220FFF784FBA1
:1044D000012240212046FEF796F80220FFF77CFBE0
:1044E000012280212046FEF78EF8BDE81040022010
:1044F000FFF772BB000C014070B5164E0024254634
:10450000012280213046FEF77EF80220FFF764FB8F
:10451000012240213046FEF776F80220FFF75CFBCF
:1045200007E0641CE4B2FA2C03D9FFF7C7FF0125AA
:1045300005E080213046FEF759F80028F1D100222D
:1045400040213046FEF75FF80220FFF745FB284682
:1045500070BD0000000C0140F8B5174F064600245E
:1045600038887D8821464543204603F0D5FB3889AD
:10457000ADF8000011494FF08070086147000F61ED
:10458000BDF800200E480260BA100A6180230B615A
:104590004FF4007CC1F810C04FF4807EC1F810E0E9
:1045A0000F6103E006600A610B61641CAC42F9D341
:1045B000C1F810C0F8BD0000440100200010014007
:1045C0000C0C01402DE9F04F2B492C260A4688712E
:1045D00092884FF4305A4FF4285B4FF4487541F6F7
:1045E000631E2B274FF02A0C4FF0F00845F21059AC
:1045F0004FF4A0744FF4F073B8B10C80A1F80280AE
:104600004A4532D1A1F808A0A1F80AB03802888141
:104610000D804B80A2F5A640103801D10B804C8054
:10462000BDE8F04F002003F0F9B9A1F800804C80FC
:104630004A4507D1A1F808A0A1F80AB04FF42C50C0
:10464000888105E072450E8105D14F81A1F80CC02B
:104650000B804D8002E0A1F80AC08F81A2F5A64030
:104660001038DDD10C804B80DAE70E81A1F80AC04A
:1046700072458F81CCD0CDE7440100202DE9FF5F4A
:104680004FF00008DDF838A0474650454FD352455B
:104690004DD351454BD3534549D3161A5D1A029059
:1046A00000914FF0FF30002E02DD4FF0010102E0DB
:1046B00003D14FF000018B4602E08346C6F10006AD
:1046C000002D02DD4FF0010002E003D14FF00000A9
:1046D000019002E0C5F100050190AE4201DD3446D3
:1046E00000E02C46601C4FF0000903901CE000988D
:1046F000524681B202980F9B80B202F09BFFB044F9
:104700002F44A04505DD0299A8EB040801EB0B003E
:104710000290A74204DDDDE9000108443F1B009040
:1047200009F101001FFA80F903998945DFDDBDE831
:10473000FF9F2DE9FF4F804600251446032082B0DD
:104740000F46A0EB440651E0381B81B208EB050A86
:1047500001901FFA8AF0059A00F0B0F8781B0090DB
:1047600081B208EB04091FFA89F0059A00F0A6F857
:1047700007EB050B1FFA8BF11FFA89F0059A00F081
:104780009DF807EB04091FFA89F11FFA8AF0059AD0
:1047900000F094F8A8EB050A1FFA89F11FFA8AF0D5
:1047A000059A00F08BF8A8EB04091FFA8BF11FFAA9
:1047B00089F0059A00F082F80198059A81B21FFAF3
:1047C0008AF000F07BF80098059A81B21FFA89F010
:1047D00000F074F86D1C002E03DA06EB8506B61D9A
:1047E00004E0281B06EB8006641E0A36A542ABDDFA
:1047F00006B0BDE8F08F000038B5002A0DD0074C98
:104800002588854209D364888C4206D30244521E0F
:10481000009392B20B4602F0C3FE38BD4401002063
:104820002DE9FE4F161ACDE900104FF000085D1A71
:1048300047464FF0FF30002E02DD4FF0010102E04D
:1048400003D14FF000018B4602E08346C6F100061B
:10485000002D02DD4FF0010002E003D14FF0000017
:10486000824602E08246C5F10005AE4201DD3446D3
:1048700000E02C46601C4FF00009029019E00098FF
:104880000C9A81B2019880B200F018F8B0442F441D
:10489000A04504DD0198A8EB040858440190A74204
:1048A00003DD00983F1B5044009009F101001FFAFE
:1048B00080F902998945E2DDBDE8FE8FF8B514461E
:1048C00003F02AFA0D480089ADF800000C484FF0BB
:1048D0008071016149000161BDF80030094A13602F
:1048E0008B100361802505614615066187150761F8
:1048F00001611460036105610661F8BD4401002097
:10490000001001400C0C01402DE9F84FCF20ADF80C
:104910000000FF4C4FF0807525616E002661BDF8E8
:104920000010DFF8F0A3CAF800106F1027614FF0F5
:104930008008C4F810804FF40079C4F8109000206B
:1049400003F03CFCC12003F039FC302003F036FCBE
:10495000ED20ADF8000025612661BDF80010CAF811
:1049600000102761C4F81080C4F81090642003F090
:1049700025FC032003F022FC122003F01FFC812001
:1049800003F01CFCE820ADF8000025612661BDF8AD
:104990000010CAF800102761C4F81080C4F8109005
:1049A000852003F00BFC102003F008FC7A2003F0B4
:1049B00005FCCB20ADF8000025612661BDF8001094
:1049C000CAF800102761C4F81080C4F8109039208C
:1049D00003F0F4FB2C2003F0F1FB002003F0EEFBCE
:1049E000342003F0EBFB022003F0E8FBF720ADF8E6
:1049F000000025612661BDF80010CAF8001027618B
:104A0000C4F81080C4F81090202003F0D7FBEA20EF
:104A1000ADF8000025612661BDF80010CAF800104D
:104A20002761C4F81080C4F81090002003F0C6FB82
:104A3000002003F0C3FBC020ADF800002561266113
:104A4000BDF80010CAF800102761C4F81080C4F83F
:104A500010901B2003F0B2FBC120ADF800002561CF
:104A60002661BDF80010CAF800102761C4F8108054
:104A7000C4F81090012003F0A1FBC520ADF80000A0
:104A800025612661BDF80010CAF800102761C4F83E
:104A90001080C4F81090302003F090FB302003F019
:104AA0008DFBC720ADF8000025612661BDF8001020
:104AB000CAF800102761C4F81080C4F81090B7201D
:104AC00003F07CFB3620ADF8000025612661BDF8BF
:104AD0000010CAF800102761C4F81080C4F81090C4
:104AE000482003F06BFB3A20ADF8000025612661F9
:104AF000BDF80010CAF800102761C4F81080C4F88F
:104B00001090552003F05AFBB120ADF8000025614C
:104B10002661BDF80010CAF800102761C4F81080A3
:104B2000C4F81090002003F049FB1A2003F046FB64
:104B3000B620ADF8000025612661BDF80010CAF866
:104B400000102761C4F81080C4F810900A2003F008
:104B500035FBA22003F032FBF220ADF80000256106
:104B60002661BDF80010CAF800102761C4F8108053
:104B7000C4F81090002003F021FB2620ADF80000BF
:104B800025612661BDF80010CAF800102761C4F83D
:104B90001080C4F81090012003F010FBE020ADF865
:104BA000000025612661BDF80010CAF800102761D9
:104BB000C4F81080C4F810900F2003F0FFFA2A20E8
:104BC00003F0FCFA282003F0F9FA082003F0F6FAC3
:104BD0000E2003F0F3FA082003F0F0FA542003F05B
:104BE000EDFAA92003F0EAFA432003F0E7FA0A20DD
:104BF00003F0E4FA0F2003F0E1FA002003F0DEFAFC
:104C0000002003F0DBFA002003F0D8FA002003F0C4
:104C1000D5FAE120ADF8000025612661BDF800104D
:104C2000CAF800102761C4F81080C4F81090002062
:104C300003F0C4FA152003F0C1FA172003F0BEFAFE
:104C4000072003F0BBFA112003F0B8FA062003F0A6
:104C5000B5FA2B2003F0B2FA562003F0AFFA3C204D
:104C600003F0ACFA052003F0A9FA102003F0A6FA2D
:104C70000F2003F0A3FA3F2003F0A0FA3F2003F037
:104C80009DFA0F2003F09AFA2B20ADF80000256161
:104C90002661BDF80010CAF800102761C4F8108022
:104CA000C4F81090002003F089FA002003F086FA7F
:104CB000012003F083FA3F2003F080FA2A20ADF8A8
:104CC000000025612661BDF80010CAF800102761B8
:104CD000C4F81080C4F81090002003F06FFA002090
:104CE00003F06CFA002003F069FAEF2003F066FA93
:104CF0001120ADF8000025612661BDF80010CAF84A
:104D000000102761C4F81080C4F81090782003E0E8
:104D1000001001400C0C0140FDF768FB2920ADF8A4
:104D2000000025612661BDF80010CAF80010276157
:104D3000C4F81080C4F81090BDE8F88F2DE9F84F42
:104D4000ED20ADF80000FF4E4FF080743461630039
:104D50003361BDF80000FC4D28609F1037614FF0B3
:104D60008009C6F810904FF40078C6F81080012032
:104D700003F024FAFE2003F021FAEE20ADF8000043
:104D800034613361BDF8000028603761C6F81090C7
:104D9000C6F81080DE2003F011FA212003F00EFA8D
:104DA000F120ADF8000034613361BDF800002860E7
:104DB0003761C6F81090C6F81080012003F0FEF9A4
:104DC000DF20ADF8000034613361BDF800002860D9
:104DD0003761C6F81090C6F81080102003F0EEF985
:104DE0004FF0C40AADF800A034613361BDF8000093
:104DF00028603761C6F81090C6F810808F2003F045
:104E0000DDF94FF0C60BADF800B034613361BDF889
:104E1000000028603761C6F81090C6F810800020A6
:104E200003F0CCF9E22003F0C9F9E22003F0C6F95F
:104E3000E22003F0C3F9BF20ADF800003461336114
:104E4000BDF8000028603761C6F81090C6F81080E1
:104E5000AA2003F0B3F9B020ADF80000346133614B
:104E6000BDF8000028603761C6F81090C6F81080C1
:104E70000D2003F0A3F9002003F0A0F90D2003F0AA
:104E80009DF9002003F09AF9112003F097F9002012
:104E900003F094F9192003F091F9002003F08EF942
:104EA000212003F08BF9002003F088F92D2003F076
:104EB00085F9002003F082F93D2003F07FF90020FE
:104EC00003F07CF95D2003F079F9002003F076F916
:104ED0005D2003F073F9002003F070F9B120ADF804
:104EE000000034613361BDF8000028603761C6F806
:104EF0001090C6F81080802003F060F9002003F0C5
:104F00005DF98B2003F05AF9002003F057F9962041
:104F100003F054F9002003F051F9B220ADF800007D
:104F200034613361BDF8000028603761C6F8109025
:104F3000C6F81080002003F041F9002003F03EF98C
:104F4000022003F03BF9002003F038F9032003F0BE
:104F500035F9002003F032F9B320ADF800003461D8
:104F60003361BDF8000028603761C6F81090C6F8BC
:104F70001080002003F022F9002003F01FF9002028
:104F800003F01CF9002003F019F9002003F016F9D2
:104F9000002003F013F9002003F010F9002003F0C3
:104FA0000DF9002003F00AF9002003F007F90020B2
:104FB00003F004F9002003F001F9002003F0FEF8EB
:104FC000002003F0FBF8002003F0F8F8002003F0C5
:104FD000F5F8002003F0F2F8002003F0EFF80020CD
:104FE00003F0ECF8002003F0E9F8002003F0E6F805
:104FF000002003F0E3F8002003F0E0F8002003F0C5
:10500000DDF8B420ADF8000034613361BDF8000074
:1050100028603761C6F81090C6F810808B2003F026
:10502000CDF8002003F0CAF8962003F0C7F800205E
:1050300003F0C4F8A12003F0C1F8002003F0BEF88B
:10504000B520ADF8000034613361BDF80000286080
:105050003761C6F81090C6F81080022003F0AEF851
:10506000002003F0ABF8032003F0A8F8002003F0C1
:10507000A5F8042003F0A2F8002003F09FF8B62062
:10508000ADF8000034613361BDF80000286037617D
:10509000C6F81090C6F81080002003F08FF80020AA
:1050A00003F08CF8B720ADF8000034613361BDF82F
:1050B000000028603761C6F81090C6F81080002004
:1050C00003F07CF8002003F079F83F2003F076F835
:1050D000002003F073F85E2003F070F8002003F066
:1050E0006DF8642003F06AF8002003F067F88C2064
:1050F00003F064F8002003F061F8AC2003F05EF8E0
:10510000002003F05BF8DC2003F058F8002003F0E7
:1051100055F8702003F052F8002003F04FF890206B
:1051200003F04CF8002003F049F8EB2003F046F8B8
:10513000002003F043F8DC2003F040F8002003F0E7
:105140003DF803E0001001400C0C0140B820ADF820
:10515000000034613361BDF8000028603761C6F893
:105160001090C6F81080002003F028F8002003F00B
:1051700025F8002003F022F8002003F01FF800209B
:1051800003F01CF8002003F019F8002003F016F8D3
:10519000002003F013F8BA20ADF800003461336149
:1051A000BDF8000028603761C6F81090C6F810807E
:1051B000242003F003F8002003F000F8002002F0A0
:1051C000FDFF002002F0FAFFC120ADF800003461BD
:1051D0003361BDF8000028603761C6F81090C6F84A
:1051E0001080202002F0EAFF002002F0E7FF5420A8
:1051F00002F0E4FF002002F0E1FFFF2002F0DEFFFA
:10520000002002F0DBFFC220ADF800003461336102
:10521000BDF8000028603761C6F81090C6F810800D
:105220000A2002F0CBFF002002F0C8FF042002F0A9
:10523000C5FF002002F0C2FFC320ADF800003461BA
:105240003361BDF8000028603761C6F81090C6F8D9
:1052500010803C2002F0B2FF002002F0AFFF3A20A5
:1052600002F0ACFF002002F0A9FF392002F0A6FFF7
:10527000002002F0A3FF372002F0A0FF002002F080
:105280009DFF3C2002F09AFF002002F097FF36209D
:1052900002F094FF002002F091FF322002F08EFF16
:1052A000002002F08BFF2F2002F088FF002002F088
:1052B00085FF2C2002F082FF002002F07FFF2920D2
:1052C00002F07CFF002002F079FF262002F076FF3A
:1052D000002002F073FF242002F070FF002002F093
:1052E0006DFF242002F06AFF002002F067FF2320F8
:1052F00002F064FF002002F061FF3C2002F05EFF3C
:10530000002002F05BFF362002F058FF002002F080
:1053100055FF322002F052FF002002F04FFF2F20F5
:1053200002F04CFF002002F049FF2C2002F046FF63
:10533000002002F043FF292002F040FF002002F08D
:105340003DFF262002F03AFF002002F037FF242024
:1053500002F034FF002002F031FF242002F02EFF83
:10536000002002F02BFF232002F028FF002002F093
:1053700025FFADF800A034613361BDF8000028605E
:105380003761C6F81090C6F81080622002F016FF50
:10539000002002F013FF052002F010FF002002F0B1
:1053A0000DFF842002F00AFF002002F007FFF0202A
:1053B00002F004FF002002F001FF182002F0FEFEC0
:1053C000002002F0FBFEA42002F0F8FE002002F014
:1053D000F5FE182002F0F2FE002002F0EFFE502051
:1053E00002F0ECFE002002F0E9FE0C2002F0E6FEE6
:1053F000002002F0E3FE172002F0E0FE002002F0A1
:10540000DDFE952002F0DAFE002002F0D7FEF32048
:1054100002F0D4FE002002F0D1FEE62002F0CEFE23
:10542000002002F0CBFEC520ADF8000034613361EE
:10543000BDF8000028603761C6F81090C6F81080EB
:10544000322002F0BBFE002002F0B8FE442002F041
:10545000B5FE002002F0B2FE652002F0AFFE002093
:1054600002F0ACFE762002F0A9FE002002F0A6FEBB
:10547000882002F0A3FE002002F0A0FEADF800B0EC
:1054800034613361BDF8000028603761C6F81090C0
:10549000C6F81080202002F091FE002002F08EFE5F
:1054A000172002F08BFE002002F088FE012002F09F
:1054B00085FE002002F082FEC720ADF800003461B6
:1054C0003361BDF8000028603761C6F81090C6F857
:1054D0001080002002F072FE002002F06FFE00201B
:1054E00002F06CFE002002F069FEC820ADF800005A
:1054F00034613361BDF8000028603761C6F8109050
:10550000C6F81080002002F059FE002002F056FE7E
:10551000002002F053FE002002F050FEC920ADF83A
:10552000000034613361BDF8000028603761C6F8BF
:105530001090C6F81080002002F040FE002002F01B
:105540003DFE002002F03AFE002002F037FE00206F
:1055500002F034FE002002F031FE002002F02EFEA8
:10556000002002F02BFE002002F028FE002002F0B6
:1055700025FE002002F022FE002002F01FFE002087
:1055800002F01CFE002002F019FE002002F016FEC0
:10559000002002F013FEE020ADF80000346133611A
:1055A000BDF8000028604FF4000AC6F810A0CB46F2
:1055B000C6F810904746C6F81080162002F0FEFD8F
:1055C000002002F0FBFD1C2002F0F8FD002002F09C
:1055D000F5FD212002F0F2FD002002F0EFFD362063
:1055E00002F0ECFD002002F0E9FD462002F0E6FDAD
:1055F000002002F0E3FD522002F0E0FD002002F066
:10560000DDFD642002F0DAFD002002F0D7FD7A20F3
:1056100002F0D4FD002002F0D1FD8B2002F0CEFD7F
:10562000002002F0CBFD992002F0C8FD002002F01E
:10563000C5FDA82002F0C2FD002002F0BFFDB92088
:1056400002F0BCFD002002F0B9FDC42002F0B6FD5E
:10565000002002F0B3FDCA2002F0B0FD002002F0ED
:10566000ADFDD22002F0AAFD002002F0A7FDD92056
:1056700002F0A4FD002002F0A1FDE02002F09EFD5A
:10568000002002F09BFDF32002F098FD002002F0C4
:1056900095FDE120ADF8000034613361BDF80000F4
:1056A0002860C6F810A0C6F810903761162002F0E6
:1056B00085FD002002F082FD1C2002F07FFD00200D
:1056C00002F07CFD222002F079FD002002F076FD40
:1056D000362002F073FD002002F070FD452002F03C
:1056E0006DFD002002F06AFD522002F067FD0020EF
:1056F00002F064FD642002F061FD002002F05EFD16
:105700007A2002F05BFD002002F058FD8B2002F0B1
:1057100055FD002002F052FD992002F04FFD0020BF
:1057200002F04CFDA82002F049FD002002F046FDE9
:10573000B92002F043FD002002F040FDC42002F039
:105740003DFD002002F03AFDCA2002F037FD0020A6
:1057500002F034FDD22002F031FD002002F02EFDD7
:10576000D82002F02BFD002002F028FDE02002F0FE
:1057700025FD002002F022FDF32002F01FFD002095
:1057800002F01CFDE220ADF8000034613361BDF889
:1057900000002860C6F810A0C6F8109037610520F8
:1057A00002F00CFD002002F009FD0B2002F006FDC6
:1057B000002002F003FD1B2002F000FD002002F09B
:1057C000FDFC342002F0FAFC002002F0F7FC44203B
:1057D00002F0F4FC002002F0F1FC4F2002F0EEFC9D
:1057E000002002F0EBFC612002F0E8FC002002F057
:1057F000E5FC792002F0E2FC002002F0DFFC8820CA
:1058000002F0DCFC002002F0D9FC972002F0D6FC6C
:10581000002002F0D3FCA62002F0D0FC002002F011
:10582000CDFCB72002F0CAFC002002F0C7FCC22069
:1058300002F0C4FC002002F0C1FCC72002F0BEFC54
:10584000002002F0BBFCD12002F0B8FC002002F0E6
:10585000B5FCD62002F0B2FC002002F0AFFCDD2047
:1058600002F0ACFC002002F0A9FCF32002F0A6FC40
:10587000002002F0A3FCE320ADF8000034613361A6
:10588000BDF800002860C6F810A0C6F81090376177
:10589000052002F093FC002002F090FC0A2002F0A8
:1058A0008DFC002002F08AFC1C2002F087FC002006
:1058B00002F084FC332002F081FC002002F07EFC28
:1058C000442002F07BFC002002F078FC502002F023
:1058D00075FC002002F072FC622002F06FFC0020D8
:1058E00002F06CFC782002F069FC002002F066FCFB
:1058F000882002F063FC002002F060FC972002F098
:105900005DFC002002F05AFCA62002F057FC0020AB
:1059100002F054FCB72002F051FC002002F04EFCD3
:10592000C22002F04BFC002002F048FCC72002F02D
:1059300045FC002002F042FCD12002F03FFC002098
:1059400002F03CFCD52002F039FC002002F036FCCD
:10595000DD2002F033FC002002F030FCF32002F0E6
:105960002DFC002002F02AFCE420ADF80000346198
:105970003361BDF800002860C6F810A0C6F810908A
:105980003761012002F01AFC002002F017FC012010
:1059900002F014FC002002F011FC022002F00EFCC8
:1059A000002002F00BFC2A2002F008FC002002F08C
:1059B00005FC3C2002F002FC002002F0FFFB4B2023
:1059C00002F0FCFB002002F0F9FB5D2002F0F6FB88
:1059D000002002F0F3FB742002F0F0FB002002F044
:1059E000EDFB842002F0EAFB002002F0E7FB9320AD
:1059F00002F0E4FB002002F0E1FBA22002F0DEFB5B
:105A0000002002F0DBFBB32002F0D8FB002002F004
:105A1000D5FBBE2002F0D2FB002002F0CFFBC42059
:105A200002F0CCFB002002F0C9FBCD2002F0C6FB47
:105A3000002002F0C3FBD32002F0C0FB002002F0E4
:105A4000BDFBDD2002F0BAFB002002F0B7FBF32023
:105A500002F0B4FB002002F0B1FBE520ADF800003D
:105A600034613361BDF800002860C6F810A0C6F8A4
:105A700010903761002002F0A1FB002002F09EFB95
:105A8000002002F09BFB002002F098FB022002F0B5
:105A900095FB002002F092FB292002F08FFB0020F2
:105AA00002F08CFB3C2002F089FB002002F086FB18
:105AB0004B2002F083FB002002F080FB5D2002F00F
:105AC0007DFB002002F07AFB742002F077FB0020BF
:105AD00002F074FB842002F071FB002002F06EFBE8
